:020000040000FA
:060000000A128A110C280F
:10000800FE00030EF1000A08F2000A128A113F2CC2
:100018000A128A110F28F801F901FA0183133930FD
:1000280084004F300A128A11832483010A128A112C
:100038001D288316031788018316031385100511DD
:100048008511831203138501860183160313860124
:1000580007300A128A1161240A128A110A128A11B7
:10006800C5220A128A110A128A116F240A128A11E9
:10007800F601F60A01300A128A1112240A128A11AC
:100088003330F5008030F6000A128A118B230A12E9
:100098008A11023083120313B8000430B700B93054
:1000A800B600B60B5528B70B5528B80B55285C2851
:1000B800023083120313B6003608F30000300A1228
:1000C8008A11D8230A128A110A128A116F240A1275
:1000D8008A110A307A06031DE4280A128A11F823C5
:1000E8000A128A110A128A117A240A128A110A1229
:1000F8008A11B5230A128A1183120313B60036082F
:10010800BE000A128A11B5230A128A118312031338
:10011800B6003608BD000A128A11B5230A128A11E0
:1001280083120313B6003608F9000A128A11B523A0
:100138000A128A1183120313B6003608BF000A1286
:100148008A11B5230A128A1183120313B6003608DE
:10015800BC003D083E07B60079083607B7003F08DF
:100168003707B8003808BB003C083B060319E328EA
:100178000A128A116F240A128A11F601F60A01304E
:100188000A128A1112240A128A110B30F5008030E3
:10019800F6000A128A118B230A128A11F601F60A4E
:1001A80002300A128A1112240A128A111A30F50032
:1001B8008030F6000A128A118B230A128A11FA017A
:1001C800F601F60A01300A128A1112240A128A115B
:1001D800273083120313B6003608A9003E08B7007B
:1001E800B8013708AA003808AB0040300A128A1153
:1001F8008D210A128A114030F5000030F6000A12EB
:100208008A118B230A128A11453083120313B60010
:100218003608A9003D08B700B8013708AA00380811
:10022800AB0040300A128A118D210A128A1140301F
:10023800F5000030F6000A128A118B230A128A117F
:10024800F601F60A02300A128A1112240A128A11D9
:100258003C3083120313B6003608A9007908B700AA
:10026800B8013708AA003808AB0040300A128A11D2
:100278008D210A128A114030F5000030F6000A126A
:100288008A118B230A128A114A3083120313B6008B
:100298003608A9003F08B700B8013708AA0038088F
:1002A800AB0040300A128A118D210A128A1140309F
:1002B800F5000030F6000A128A118B230A128A11FF
:1002C8000E3083120313B6003608F60002300A1205
:1002D8008A1112240A128A11303083120313B600CD
:1002E8003608A9007A08B700B8013708AA00380804
:1002F800AB0040300A128A118D210A128A1140304F
:10030800F5000030F6000A128A118B230A128A11AE
:10031800682883120313B4002A30AC002C08AF00FD
:100328000130A907FF30290784000A128A117122B7
:100338000A128A11AC002C08B50035080319622A84
:10034800253035060319B4293508AC003408840073
:100358002C08831380000130AC002C08B4079429C2
:10036800B0010130A907FF30290784000A128A1159
:1003780071220A128A11B500AC00AD012D08003AAD
:100388000319C72994292C08003A0319622A643AE8
:100398000319D2290D3A0319D22994292F08840068
:1003A80083130008B200840A0008B3000230AC00CE
:1003B8002C08AF07B31FE9290330AC002C08B004A0
:1003C800B209B309B20A0319B30AB501B50A350867
:1003D800AC002C07013E84000A128A1171220A120D
:1003E8008A11AD000A128A1171220A128A11AE000E
:1003F8002E083302031D022A2D083202031C0C2A80
:100408000130AC002C08B50705303506031DEB2973
:100418003008033903191B2A2D30AC003408840036
:100428002C08831380000130AC002C08B407350871
:10043800AC002C08B100FF30AC002C08B107310A21
:10044800031994290A30A3000030A4003108AC0035
:100458002C07013E84000A128A1171220A128A119D
:10046800F3000A128A1171220A128A11F400330861
:10047800F6003208F5000A128A1119230A128A11A5
:10048800740883120313A6007308A5000A128A11C0
:1004980057230A128A11831203132308303EAD0032
:1004A8002D08B5003508AC00340884002C088313E7
:1004B80080000130AC002C08B4071F2A34088400DF
:1004C800831380010800FF1B712A83137F18831789
:1004D8000008840A0319FF0A080002308A00040889
:1004E800840A82070034013400340A340034643446
:1004F8000034E83403341034273445347234723409
:100508006F3472342C342034723465347634693460
:10051800733461347234003463346F346D34753439
:100528006E34693463346134633469346F346E34DF
:100538000034483475346D3465346434613464345B
:100548003A342034253464340034463475346E34F7
:10055800633469346F346E34613400345434653430
:100568006D3470343A3420342534643400342E34F5
:1005780025346434253400342E342534643443342B
:1005880000348312031386013430F700F130F6008B
:10059800F60BCC2AF70BCC2AD12A30300A128A1152
:1005A8002B240A128A110D30F700FB30F600F60BE7
:1005B800DB2AF70BDB2AE02A30300A128A112B24B7
:1005C8000A128A116D30F600F60BE82AEB2A303051
:1005D8000A128A112B240A128A116D30F600F60BC2
:1005E800F32AF62A38300A128A112B240A128A11A1
:1005F80014300A128A112B240A128A1101300A12A5
:100608008A112B240A128A1106300A128A112B2405
:100618000A128A110C300A128A112B240A128A1122
:1006280002300A128A112B24080083120313A10135
:10063800A201730874040319522BA001A00AF41B29
:10064800312B01300310F30DF40DFF3E031D262B53
:100658000130F7007708A007232B01300310A10D04
:10066800A20DFF3E031D322B74087602031D3E2B9C
:1006780073087502031C472B7308F5027408031CE2
:10068800F603F602211401300310F40CF30CFF3EBC
:10069800031D482B0130A002031D312B2208F40052
:1006A8002108F30008008312031323082404031904
:1006B800862BA801A80AA41B6D2B01300310A30DDB
:1006C800A40DFF3E031D622B0130A7002708A807D1
:1006D8005F2B24082602031D732B23082502031C05
:1006E8007B2B2308A5022408031CA603A6020130BD
:1006F8000310A40CA30CFF3E031D7C2B0130A802A1
:10070800031D6D2B2608A4002508A30008008312EA
:100718000313A00120087507840076080318760AD9
:10072800FF000A128A1167220A128A11003A031975
:10073800080020087507840076080318760AFF0069
:100748000A128A1167220A128A110A128A1151247E
:100758000A128A110130F700770883120313A007E1
:100768008E2B83120313B901051CB82B1330F30029
:10077800F30BBC2BBF2B83120313051CC62B0314CE
:10078800F80DCC2B7808F3007307F4007408F80010
:100798000518CC2B0130F3007308B907083039026B
:1007A800031CB82B78080800F60083120313901373
:1007B80010137308F400F40E10087406CF39740689
:1007C80090009011901010140B170C10831603133F
:1007D8000C148B177608F400F501740883120313C0
:1007E8008E0075088F000800831603130510831206
:1007F800031305102F30F400BF30F300F30B022C65
:10080800F40B022C072C8312031305140D30F3008C
:10081800F30B0C2C8316031305140800831203131F
:10082800A1002103031D1D2C76087F3EF7007708E1
:10083800A00002302106031D262C7608BF3EF700D3
:100848007708A00020080A128A112B240800F50056
:100858008312031385107508860005150B30F40004
:100868006230F300F30B362CF40B362C00008312A5
:10087800031305110800831203130C1C4A2C0130C2
:10088800F0007008FA078E018F010C1072088A00B8
:10089800710E8300FE0E7E0E0900F400831203130E
:1008A80085147408860005151A30F300F30B5A2CCA
:1008B80000008312031305110800F4007408F30004
:1008C800F30E831603130F0873068F3973068F0010
:1008D8000F148F11080000300A128A112B240A12F3
:1008E8008A1101300A128A112B240800831203137B
:1008F80005187A2C051C7E2C051C0800802C640029
:0E0908008001840A0406031900340406842CBE
:04400E00D4E3FFFFF9
:00000001FF
