:020000040000FA
:060000000A128A110C280F
:10000800FE00030EF2000A08F3000A128A11AD2955
:100018000A128A110F280A128A112A22AC00A80192
:10002800A901AA01AB01F601F701F801F901830161
:100038000A128A111F280A128A1162210A128A11C9
:10004800063083120313A7002F30A600A60B2A2818
:10005800A70B2A282F280130F4000030F5000A12D7
:100068008A1109220A128A110A128A1111220A1205
:100078008A1183120313A6002608A8001A308312D7
:100088000313A700F730A600A60B4828A70B48289B
:100098004D280230F4000030F5000A128A110922B6
:1000A8000A128A110A128A1111220A128A1183125B
:1000B8000313A6002608F8001A3083120313A700BA
:1000C800F730A600A60B6628A70B66286B28033016
:1000D800F4000030F5000A128A1109220A128A1166
:1000E8000A128A1111220A128A1183120313A60016
:1000F8002608A9001A3083120313A700F730A600B8
:10010800A60B8428A70B842889280430F400003023
:10011800F5000A128A1109220A128A110A128A1192
:1001280011220A128A1183120313A6002608AA00B4
:100138001A3083120313A700F730A600A60BA228D3
:10014800A70BA228A7280530F4000030F5000A12F2
:100158008A1109220A128A110A128A1111220A1214
:100168008A1183120313A6002608F7001A30831297
:100178000313A700F730A600A60BC028A70BC028BA
:10018800C5280630F4000030F5000A128A11092249
:100198000A128A110A128A1111220A128A1183126A
:1001A8000313A6002608F6001A3083120313A700CB
:1001B800F730A600A60BDE28A70BDE28E3282428A4
:1001C80083120313A4000F29831603130F12EF28B9
:1001D800831603130F168F12F928831603130F12B1
:1001E800F828831603130F168F160F133129831659
:1001F80003130F120229831603130F168F120D29EA
:100208000929831603130F160C29831603130F12DB
:100218008F160F1731292408F400F5017508003AE4
:100228000319172909297408003A0319E828013A1B
:100238000319EC28033A0319F128013A0319F528A0
:10024800073A0319FB28013A0319FF28033A03194F
:100258000429013A031905290929831203132003E4
:10026800031D3A29831603138F153D29831603139B
:100278008F11831203132103031D462983160313C9
:100288000F154929831603130F1183120313220331
:10029800031D5229831603138F145529831603133C
:1002A8008F10831203132303031D5E298316031380
:1002B8000F140800831603130F100800831203138A
:1002C800A001A00AA101A10AA201A301A30A073063
:1002D8000A128A11E4200A128A1183160317880168
:1002E800890183160313850186018801831203138C
:1002F80086018801831603138717831203130811D5
:1003080088118B170B178C11831603138C15851600
:1003180083120313A001A1014030A5002508A20003
:1003280024300A128A11ED218316031787118316C8
:10033800031318159A0151309A00181283120313E7
:100348009817831603131813981683120313181695
:100358000800831203138C1DE6290A128A11182239
:100368000A128A11F1007108F900831203130815A3
:100378007903031DC1292808DE2902307906031DE7
:10038800C7297808DE2903307906031DCD292908F5
:10039800DE2904307906031DD3292A08DE29053011
:1003A8007906031DD9297708DE2906307906031D49
:1003B800E32976080A128A111F220A128A11831267
:1003C80003138C1173088A00720E8300FE0E7E0ED2
:1003D8000900F400831603138712741DFB29831286
:1003E800031322088316031394008715032A831224
:1003F800031320082204831603139400871174083A
:1004080083120313210494000800831203130C1EA3
:10041800092A0C12740899000800831203138C1E11
:10042800112A8C121A0808000A128A11252283122E
:10043800031313080800F0007008831203139300D5
:0E04480008008316031314180800252AFF3439
:04400E00D4E0FFFFFC
:00000001FF
