:020000040000FA
:060000000A128A110C280F
:10000800FE00030EF1000A08F2000A128A111F28E6
:100018000A128A110F28F601F701F801F901FA010D
:1000280083120313A001A101A201A301A40183016A
:100038000A128A118B28831203138C1D7928141233
:10004800141B2828941F2F281308F0007008A400F8
:1000580014139413141683160313941E14195C288E
:10006800831203131308F0007008A4008C111416EF
:1000780083160313141C3C287708031D4D2883128C
:1000880003131308F0007008FA000130F00070083C
:10009800F7077703031D562883121308F00070082A
:1000A800F900F701A630F000F00B58280000762878
:1000B800941E141D7628831203131308F000700889
:1000C800A400831603131410831203132808930043
:1000D8001416A630F000F00B6F28000083160313E7
:1000E80014187228831203138C110C1C84280130F5
:1000F800A2070318A30A0030A3078E018F010C1072
:1001080072088A00710E8300FE0E7E0E09000A1224
:100118008A11CF200A128A1100308312031305189E
:100128000130A8000130A0070318A10A0030A10778
:10013800003005180130A8002803031DA82805155C
:10014800F601F60AA201A3017603031DB4280030C4
:100158002302F13003192202031CB4280511F60109
:100168007908031DC6287A08031DC6287808031DC8
:10017800C628F801F80AA001A1010130A700270844
:10018800F9078514200A031D9628210A031D9628BD
:100198008510F801962807300A128A112B210A12B5
:1001A8008A110430F3000030F4000A128A11122177
:1001B8000A128A118316031788018316031305147C
:1001C80005118510033083120313A6002608F300D7
:1001D80000300A128A11F220F70108008312031373
:1001E800A500901310137308F400F40E1008740699
:1001F800CF39740690009011901010140B170C1042
:10020800831603130C148B17831203132508F400A9
:10021800F50174088E0075088F00080073088316AE
:10022800031393003630831203139400803083162F
:100238000313940001309100871507168B170B17CD
:10024800831203138C11831603138C150800F40012
:100258007408F300F30E831603130F0873068F391F
:0A02680073068F000F148F110800B9
:04400E00D4E0FFFFFC
:00000001FF
