:020000040000FA
:100000000A128A11F52FFF1B0D2883137F188317FF
:100010000008840A0319FF0A080000308A00040857
:10002000840A82070034013400340A340034643412
:100030000034E8340334103427344D346F347634CC
:10004000693465346E3464346F343A342034253482
:100050006434003454346834653474346134203486
:100060003D34203425346434003468346F346C34C7
:08007000613461346134003495
:1006AC00831203139F149F18592B1E080800640013
:1006BC008001840A04060319003404065E2B003002
:1006CC000A128A11A9230A128A1101300A128A11FC
:1006DC00A9230800F1007108F000F00DF00D831251
:1006EC0003131F087006C33970069F000800F10041
:1006FC007108F000F00EF00DF00D831203131F08BB
:10070C0070063F3970069F000800F1007108F00078
:10071C00F00E831603130F0870068F3970068F00C6
:10072C000F148F110800F1008312031305157108C3
:10073C00860085141A30F000F00BA22B00008312F7
:10074C00031385100800F2008312031305117208BD
:10075C00860085140B30F1006230F000F00BB42BE6
:10076C00F10BB42B00008312031385100800F60064
:10077C007603031DC62B73087F3EF4007408F50046
:10078C0002307606031DCF2B7308BF3EF4007408AD
:10079C00F50075080A128A11A9230800F4007408E0
:1007AC000A128A1196250A128A11831603139F12B4
:1007BC001F129F13831203131F1473080A128A113A
:1007CC007D230A128A1174080A128A1170230800F8
:1007DC00F50175087207840073080318730A8312F5
:1007EC000313FF000A128A1103200A128A11003A1D
:1007FC000319080075087207840073080318730A3C
:10080C00FF000A128A1103200A128A110A128A1195
:10081C0099230A128A110130F4007408F507EF2BA2
:10082C00780879040319432CFD01FD0AF91B2A2CC5
:10083C0001300310F80DF90DFF3E031D1F2C013084
:10084C00FC007C08FD071C2C79087B02031D302C56
:10085C0078087A02031C382C7808FA027908031CF1
:10086C00FB03FB0201300310F90CF80CFF3E031DD7
:10087C00392C0130FD02031D2A2C7B08F9007A0863
:10088C00F8000800F501F6017008710403197F2CBB
:10089C00F701F70AF11B5E2C01300310F00DF10D7E
:1008AC00FF3E031D532C0130F4007408F707502C45
:1008BC0001300310F50DF60DFF3E031D5F2C710882
:1008CC007302031D6B2C70087202031C742C7008CD
:1008DC00F2027108031CF303F302751401300310C8
:1008EC00F10CF00CFF3E031D752C0130F702031DBB
:1008FC005E2C7608F1007508F000080083120313D3
:10090C0086013430F400F130F300F30B8B2CF40B34
:10091C008B2C902C30300A128A11A9230A128A11BE
:10092C000D30F400FB30F300F30B9A2CF40B9A2CE3
:10093C009F2C30300A128A11A9230A128A116D30A9
:10094C00F300F30BA72CAA2C30300A128A11A9231E
:10095C000A128A116D30F300F30BB22CB52C38301F
:10096C000A128A11A9230A128A1114300A128A1146
:10097C00A9230A128A1101300A128A11A9230A1218
:10098C008A1106300A128A11A9230A128A110C3014
:10099C000A128A11A9230A128A1102300A128A1128
:1009AC00A923080083120313A201A30171082302D7
:1009BC00031DE22C700822020318080003302205E4
:1009CC00A00000302305A10020032104031DF92CF5
:1009DC00083088000D30F300FB30F200F20BF42CE1
:1009EC00F30BF42CF92C0230831203132006210490
:1009FC00031D0B2D043088000D30F300FB30F2008A
:100A0C00F20B062DF30B062D0B2D03308312031363
:100A1C0020062104031D1D2D023088000D30F3002B
:100A2C00FB30F200F20B182DF30B182D1D2D831239
:100A3C00031320082104031D2E2D013088000D30D6
:100A4C00F300FB30F200F20B292DF30B292D2E2D88
:100A5C00013083120313A2070318A30A0030A30763
:100A6C00DC2C83120313A601A70171082702031DB6
:100A7C00412D700826020318080003302605A40037
:100A8C0000302705A50024032504031D582D013033
:100A9C0088000D30F300FB30F200F20B532DF30BFA
:100AAC00532D582D02308312031324062504031DE5
:100ABC006A2D023088000D30F300FB30F200F20B8F
:100ACC00652DF30B652D6A2D033083120313240659
:100ADC002504031D7C2D043088000D30F300FB3001
:100AEC00F200F20B772DF30B772D7C2D8312031371
:100AFC0024082504031D8D2D083088000D30F300CB
:100B0C00FB30F200F20B882DF30B882D8D2D01306C
:100B1C0083120313A6070318A70A0030A7073B2D5F
:100B2C00F200012E83160317081483160313051401
:100B3C000800831603178814831603138514080002
:100B4C00831603170815831603130515080083165F
:100B5C0003178815831603138515080083160317CE
:100B6C0008168316031385160800831603178816B8
:100B7C00831603130914080083160317081783162A
:100B8C00031389140800831603178817831603139D
:100B9C000915080083160317091483160313061589
:100BAC00080083160317891483160313861508008F
:100BBC00831603170915831603138614080083166E
:100BCC0003178915831603130616080083160317DB
:100BDC0009168316031306140800831603178916C7
:100BEC00831603138616080083160317081483163E
:100BFC000313051408007208F000F1017108003AA3
:100C0C000319092EFA2D7008003A0319982D013A90
:100C1C0003199F2D033A0319A62D013A0319AD2D83
:100C2C00073A0319B42D013A0319BB2D033A0319E2
:100C3C00C22D013A0319C92D0F3A0319D02D013ACF
:100C4C000319D72D033A0319DE2D013A0319E52DAB
:100C5C00073A0319EC2D013A0319F32DFA2D08006C
:100C6C0083120313E3005930DB005B08DE00013014
:100C7C00D807FF30580784000A128A110D200A1277
:100C8C008A11DB005B08E40064080319092F253086
:100C9C00640603195D2E6408DB00630884005B089E
:100CAC00831380000130DB005B08E3073D2EDF017E
:100CBC000130D807FF30580784000A128A110D2022
:100CCC000A128A11E400DB00DC015C08003A03190B
:100CDC00702E3D2E5B08003A0319092F643A031954
:100CEC007B2E0D3A03197B2E3D2E5E088400831358
:100CFC000008E100840A0008E2000230DB005B0817
:100D0C00DE07E21F922E0330DB005B08DF04E109F3
:100D1C00E209E10A0319E20AE401E40A6408DB00CF
:100D2C005B07013E84000A128A110D200A128A11F7
:100D3C00DC000A128A110D200A128A11DD005D08EE
:100D4C006202031DAB2E5C086102031CB52E013040
:100D5C00DB005B08E40705306406031D942E5F0876
:100D6C0003390319C42E2D30DB00630884005B08A3
:100D7C00831380000130DB005B08E3076408DB00B1
:100D8C005B08E000FF30DB005B08E007600A03193A
:100D9C003D2E0A30F8000030F9006008DB005B07DC
:100DAC00013E84000A128A110D200A128A11F000E9
:100DBC000A128A110D200A128A11F1006208F3003E
:100DCC006108F2000A128A1148240A128A11710869
:100DDC00FB007008FA000A128A1116240A128A11F2
:100DEC007808303E83120313DC005C08E4006408CE
:100DFC00DB00630884005B08831380000130DB0098
:100E0C005B08E307C82E6308840083138001080085
:100E1C0007300A128A118B230A128A1102308312AC
:100E2C000313E5006508F30000300A128A11D4237D
:100E3C000A128A1183160313860101308900831666
:100E4C0003178810081183160313851005118312DC
:100E5C000313850186018316031388018312031380
:100E6C0088010A128A1184240A128A110A128A1120
:100E7C0065230A128A11F301F30A01300A128A114E
:100E8C00BD230A128A112330F2008030F3000A12BB
:100E9C008A11EE230A128A11333083120313E700EE
:100EAC00BB30E600DF30E500E50B5A2FE60B5A2F7E
:100EBC00E70B5A2F0A128A1165230A128A110A1299
:100ECC008A1156230A128A1183120313E50065084E
:100EDC00B4003408E500E6010310E50DE60D03103F
:100EEC00E50DE60D0310E50DE60D6508B00066088E
:100EFC00B1000630F0000030F1003108F30030088A
:100F0C00F2000A128A1148240A128A1171088312FB
:100F1C000313AF007008AE001830E5006508D80068
:100F2C002F08DA002E08D90049300A128A11362609
:100F3C000A128A110B3083120313E5006508D800DE
:100F4C003108DA003008D90035300A128A113626F9
:100F5C000A128A11F301F30A01300A128A11BD2315
:100F6C000A128A114930F2000030F3000A128A1179
:100F7C00EE230A128A11F301F30A02300A128A11C3
:100F8C00BD230A128A113530F2000030F3000A1228
:100F9C008A11EE230A128A1183120313891DE42F7E
:100FAC008919D62F3108F1003008F0000A128A1185
:100FBC00D8240A128A11831203138801091D602F89
:100FCC000919E62F3108F1003008F0000A128A11D5
:100FDC0037250A128A11831203138801602F831399
:100FEC002030840058300A128A115D2383010A12C2
:040FFC008A110E2F19
:04400E00D4E3FFFFF9
:00000001FF
