:020000040000FA
:100000000A128A11F52FFF1B0D2883137F188317FF
:100010000008840A0319FF0A080000308A00040857
:10002000840A82070034013400340A340034643412
:100030000034E83403341034273420345334743417
:100040006534703420343D34203425346434003435
:0E00500068346F346C346134613461340034D0
:1007F600831203139F149F18FE2B1E080800640023
:100806008001840A0406031900340406032C003010
:100816000A128A114E240A128A1101300A128A110A
:100826004E240800F1007108F000F00DF00D83125F
:1008360003131F087006C33970069F000800F100F5
:100846007108F000F00EF00DF00D831203131F086F
:1008560070063F3970069F000800F1007108F0002D
:10086600F00E831603130F0870068F3970068F007B
:100876000F148F110800F100831203130515710878
:10088600860085141A30F000F00B472C0000831206
:10089600031385100800F200831203130511720872
:1008A600860085140B30F1006230F000F00B592CF5
:1008B600F10B592C00008312031385100800F60073
:1008C6007603031D6B2C73087F3EF4007408F50055
:1008D60002307606031D742C7308BF3EF4007408BC
:1008E600F50075080A128A114E240800F4007408EF
:1008F6000A128A11DC250A128A11831603139F1223
:100906001F129F13831203131F1473080A128A11EE
:1009160022240A128A1174080A128A111524080060
:10092600F50175087207840073080318730A8312A9
:100936000313FF000A128A1103200A128A11003AD1
:100946000319080075087207840073080318730AF0
:10095600FF000A128A1103200A128A110A128A114A
:100966003E240A128A110130F4007408F507942C0B
:10097600780879040319E82CFD01FD0AF91BCF2C30
:1009860001300310F80DF90DFF3E031DC42C013094
:10099600FC007C08FD07C12C79087B02031DD52CC1
:1009A60078087A02031CDD2C7808FA027908031C01
:1009B600FB03FB0201300310F90CF80CFF3E031D8C
:1009C600DE2C0130FD02031DCF2C7B08F9007A08CE
:1009D600F8000800F501F601700871040319242DCA
:1009E600F701F70AF11B032D01300310F00DF10D8D
:1009F600FF3E031DF82C0130F4007408F707F52CB0
:100A060001300310F50DF60DFF3E031D042D710890
:100A16007302031D102D70087202031C192D700835
:100A2600F2027108031CF303F3027514013003107C
:100A3600F10CF00CFF3E031D1A2D0130F702031DC9
:100A4600032D7608F1007508F000080083120313E1
:100A560086013430F400F130F300F30B302DF40B43
:100A6600302D352D30300A128A114E240A128A1181
:100A76000D30F400FB30F300F30B3F2DF40B3F2D4C
:100A8600442D30300A128A114E240A128A116D3012
:100A9600F300F30B4C2D4F2D30300A128A114E24E1
:100AA6000A128A116D30F300F30B572D5A2D383088
:100AB6000A128A114E240A128A1114300A128A1155
:100AC6004E240A128A1101300A128A114E240A1281
:100AD6008A1106300A128A114E240A128A110C3023
:100AE6000A128A114E240A128A1102300A128A1137
:100AF6004E24080083120313A201A30171082302E6
:100B0600031D872D700822020318080003302205F2
:100B1600A00000302305A10020032104031D9E2D03
:100B2600013088000D30F300FB30F200F20B992DF6
:100B3600F30B992D9E2D02308312031320062104F8
:100B4600031DB02D023088000D30F300FB30F2009B
:100B5600F20BAB2DF30BAB2DB02D03308312031329
:100B660020062104031DC22D043088000D30F30039
:100B7600FB30F200F20BBD2DF30BBD2DC22D8312FF
:100B8600031320082104031DD32D083088000D30DF
:100B9600F300FB30F200F20BCE2DF30BCE2DD32D4E
:100BA600013083120313A2070318A30A0030A30718
:100BB600812DF200472E831603170814831603139C
:100BC6000514080083160317881483160313851467
:100BD6000800831603170815831603130515080066
:100BE60083160317881583160313851508008316C5
:100BF60003170816831603138516080083160317B2
:100C0600881683160313091408008316031708179A
:100C1600831603138914080083160317881783168F
:100C26000313091508008316031709148316031303
:100C360006150800831603178914831603138615F1
:100C46000800831603170915831603138614080074
:100C560083160317891583160313061608008316D1
:100C660003170916831603130614080083160317C1
:100C760089168316031386160800831603170814AD
:100C860083160313051408007208F000F1017108B9
:100C9600003A03194F2E402E7008003A0319DE2D34
:100CA600013A0319E52D033A0319EC2D013A03190C
:100CB600F32D073A0319FA2D013A0319012E033AC7
:100CC6000319082E013A03190F2E0F3A0319162E8F
:100CD600013A03191D2E033A0319242E013A03196A
:100CE6002B2E073A0319322E013A0319392E402EBC
:100CF600080007300A128A1130240A128A110230BB
:100D060083120313C5004508F30000300A128A1146
:100D160079240A128A118316031386018316031790
:100D26008810081183160313851005118312031307
:100D36008501860183160313880183120313880134
:100D46000A128A1129250A128A110A128A110A24FC
:100D56000A128A11F301F30A01300A128A11622477
:100D66000A128A111630F2008030F3000A128A1134
:100D760093240A128A11333083120313C700BB303F
:100D8600C600DF30C500C50BC62EC60BC62EC70B68
:100D9600C62E013083120313C5004508A7070A12A1
:100DA6008A110A240A128A110A128A11FB230A12CC
:100DB6008A1183120313C5004508A8002808C50038
:100DC600C6010310C50DC60D0310C50DC60D450899
:100DD600A4004608A5000B30C5004508B800250844
:100DE600BA002408B90029300A128A111D270A12EE
:100DF6008A11F301F30A01300A128A1162240A12D7
:100E06008A112930F2000030F3000A128A11932465
:100E16000A128A11C930831203132702031CCC2E2F
:100E26002508F1002408F0000A128A117D250A120D
:100E36008A11CC2E83120313C3003930BB003B0842
:100E4600BE000130B807FF30380784000A128A1145
:100E56000D200A128A11BB003B08C400440803197E
:100E6600F02F253044060319442F4408BB004308DD
:100E760084003B08831380000130BB003B08C30796
:100E8600242FBF010130B807FF30380784000A124B
:100E96008A110D200A128A11C400BB00BC013C084D
:100EA600003A0319572F242F3B08003A0319F02F55
:100EB600643A0319622F0D3A0319622F242F3E0854
:100EC600840083130008C100840A0008C2000230AF
:100ED600BB003B08BE07C21F792F0330BB003B088F
:100EE600BF04C109C209C10A0319C20AC401C40A5E
:100EF6004408BB003B07013E84000A128A110D20FC
:100F06000A128A11BC000A128A110D200A128A11CD
:100F1600BD003D084202031D922F3C084102031CFE
:100F26009C2F0130BB003B08C40705304406031D57
:100F36007B2F3F0803390319AB2F2D30BB00430825
:100F460084003B08831380000130BB003B08C307C5
:100F56004408BB003B08C000FF30BB003B08C0078D
:100F6600400A0319242F0A30F8000030F90040081F
:100F7600BB003B07013E84000A128A110D200A12AB
:100F86008A11F0000A128A110D200A128A11F10044
:100F96004208F3004108F2000A128A11ED240A12EF
:100FA6008A117108FB007008FA000A128A11BB2424
:100FB6000A128A117808303E83120313BC003C08DB
:100FC600C4004408BB00430884003B088313800028
:100FD6000130BB003B08C307AF2F430884008313CF
:100FE6008001080083132030840038300A128A11E9
:0A0FF600022483010A128A117C2EE6
:04400E00D4E3FFFFF9
:00000001FF
