:020000040000FA
:100000000A128A11F52FFF1B0D2883137F188317FF
:100010000008840A0319FF0A080000308A00040857
:10002000840A82070034013400340A340034643412
:100030000034E8340334103427344D346F347634CC
:10004000693465346E3464346F343A342034253482
:100050006434003454346834653474346134203486
:100060003D34203425346434003468346F346C34C7
:08007000613461346134003495
:10078A00831203139F149F18C82B1E0808006400C5
:10079A008001840A0406031900340406CD2B0030B4
:1007AA000A128A1118240A128A1101300A128A11AD
:1007BA0018240800F1007108F000F00DF00D831202
:1007CA0003131F087006C33970069F000800F10062
:1007DA007108F000F00EF00DF00D831203131F08DC
:1007EA0070063F3970069F000800F1007108F0009A
:1007FA00F00E831603130F0870068F3970068F00E8
:10080A000F148F110800F1008312031305157108E4
:10081A00860085141A30F000F00B112C00008312A8
:10082A00031385100800F2008312031305117208DE
:10083A00860085140B30F1006230F000F00B232C97
:10084A00F10B232C00008312031385100800F60015
:10085A007603031D352C73087F3EF4007408F500F7
:10086A0002307606031D3E2C7308BF3EF40074085E
:10087A00F50075080A128A1118240800F400740891
:10088A000A128A11A6250A128A11831603139F12C5
:10089A001F129F13831203131F1473080A128A115B
:1008AA00EC230A128A1174080A128A11DF2308003B
:1008BA00F50175087207840073080318730A831216
:1008CA000313FF000A128A1103200A128A11003A3E
:1008DA000319080075087207840073080318730A5D
:1008EA00FF000A128A1103200A128A110A128A11B7
:1008FA0008240A128A110130F4007408F5075E2CE4
:10090A00780879040319B22CFD01FD0AF91B992C08
:10091A0001300310F80DF90DFF3E031D8E2C013036
:10092A00FC007C08FD078B2C79087B02031D9F2C99
:10093A0078087A02031CA72C7808FA027908031CA3
:10094A00FB03FB0201300310F90CF80CFF3E031DF8
:10095A00A82C0130FD02031D992C7B08F9007A08A6
:10096A00F8000800F501F601700871040319EE2C6D
:10097A00F701F70AF11BCD2C01300310F00DF10D30
:10098A00FF3E031DC22C0130F4007408F707BF2C88
:10099A0001300310F50DF60DFF3E031DCE2C710834
:1009AA007302031DDA2C70087202031CE32C700810
:1009BA00F2027108031CF303F302751401300310E9
:1009CA00F10CF00CFF3E031DE42C0130F702031D6D
:1009DA00CD2C7608F1007508F00008008312031385
:1009EA0086013430F400F130F300F30BFA2CF40BE7
:1009FA00FA2CFF2C30300A128A1118240A128A1192
:100A0A000D30F400FB30F300F30B092DF40B092D24
:100A1A000E2D30300A128A1118240A128A116D30EA
:100A2A00F300F30B162D192D30300A128A111824EF
:100A3A000A128A116D30F300F30B212D242D383060
:100A4A000A128A1118240A128A1114300A128A11F7
:100A5A0018240A128A1101300A128A1118240A1259
:100A6A008A1106300A128A1118240A128A110C30C5
:100A7A000A128A1118240A128A1102300A128A11D9
:100A8A001824080083120313A601A701710827027C
:100A9A00031D512D7008260203180800033026058D
:100AAA00A40000302705A50024032504031D682D92
:100ABA00013088000D30F300FB30F200F20B632D99
:100ACA00F30B632D682D02308312031324062504C9
:100ADA00031D7A2D023088000D30F300FB30F2003E
:100AEA00F20B752DF30B752D7A2D03308312031338
:100AFA0024062504031D8C2D043088000D30F300D4
:100B0A00FB30F200F20B872DF30B872D8C2D83120D
:100B1A00031324082504031D9D2D083088000D3079
:100B2A00F300FB30F200F20B982DF30B982D9D2D5C
:100B3A00013083120313A6070318A70A0030A70778
:100B4A004B2DF200112E8316031708148316031374
:100B5A0005140800831603178814831603138514D3
:100B6A0008008316031708158316031305150800D2
:100B7A008316031788158316031385150800831631
:100B8A00031708168316031385160800831603171E
:100B9A008816831603130914080083160317081707
:100BAA0083160313891408008316031788178316FC
:100BBA000313091508008316031709148316031370
:100BCA00061508008316031789148316031386155E
:100BDA0008008316031709158316031386140800E1
:100BEA00831603178915831603130616080083163E
:100BFA00031709168316031306140800831603172E
:100C0A008916831603138616080083160317081419
:100C1A0083160313051408007208F000F101710825
:100C2A00003A0319192E0A2E7008003A0319A82D42
:100C3A00013A0319AF2D033A0319B62D013A0319E4
:100C4A00BD2D073A0319C42D013A0319CB2D033AD6
:100C5A000319D22D013A0319D92D0F3A0319E02DA0
:100C6A00013A0319E72D033A0319EE2D013A031944
:100C7A00F52D073A0319FC2D013A0319032E0A2E02
:100C8A00080007300A128A11FA230A128A1102305E
:100C9A0083120313E5006508F30000300A128A1173
:100CAA0043240A128A11831603138601013089002C
:100CBA00831603178810081183160313851005116C
:100CCA008312031385018601831603138801831295
:100CDA00031388010A128A11F3240A128A110A12CA
:100CEA008A11D4230A128A11F301F30A01300A1273
:100CFA008A112C240A128A112330F2008030F30060
:100D0A000A128A115D240A128A11333083120313DC
:100D1A00E700BB30E600DF30E500E50B922EE60B7C
:100D2A00922EE70B922E0A128A11D4230A128A11E2
:100D3A000A128A11C5230A128A1183120313E500C3
:100D4A006508B4003408E500E6010310E50DE60D78
:100D5A000310E50DE60D0310E50DE60D6508B0007C
:100D6A006608B1000630F0000030F1003108F300E7
:100D7A003008F2000A128A11B7240A128A1171087D
:100D8A0083120313AF007008AE001830E50065083F
:100D9A00D8002F08DA002E08D90049300A128A1121
:100DAA001D270A128A110B3083120313E500650806
:100DBA00D8003108DA003008D90035300A128A1111
:100DCA001D270A128A11F301F30A01300A128A1145
:100DDA002C240A128A114930F2000030F3000A1258
:100DEA008A115D240A128A11F301F30A02300A12E7
:100DFA008A112C240A128A113530F2000030F300CD
:100E0A000A128A115D240A128A1183120313891D98
:100E1A00982E89190E2F3108F1003008F0000A12B5
:100E2A008A1147250A128A11831203138801982E00
:100E3A0083120313E3005930DB005B08DE00013044
:100E4A00D807FF30580784000A128A110D200A12A7
:100E5A008A11DB005B08E40064080319F02F2530CF
:100E6A0064060319442F6408DB00630884005B08E6
:100E7A00831380000130DB005B08E307242FDF01C6
:100E8A000130D807FF30580784000A128A110D2052
:100E9A000A128A11E400DB00DC015C08003A03193B
:100EAA00572F242F5B08003A0319F02F643A0319CD
:100EBA00622F0D3A0319622F242F5E0884008313D0
:100ECA000008E100840A0008E2000230DB005B0847
:100EDA00DE07E21F792F0330DB005B08DF04E1093C
:100EEA00E209E10A0319E20AE401E40A6408DB0000
:100EFA005B07013E84000A128A110D200A128A1128
:100F0A00DC000A128A110D200A128A11DD005D081E
:100F1A006202031D922F5C086102031C9C2F0130A0
:100F2A00DB005B08E40705306406031D7B2F5F08BE
:100F3A0003390319AB2F2D30DB00630884005B08EB
:100F4A00831380000130DB005B08E3076408DB00E1
:100F5A005B08E000FF30DB005B08E007600A03196A
:100F6A00242F0A30F8000030F9006008DB005B0724
:100F7A00013E84000A128A110D200A128A11F00019
:100F8A000A128A110D200A128A11F1006208F3006E
:100F9A006108F2000A128A11B7240A128A1171082A
:100FAA00FB007008FA000A128A1185240A128A11B3
:100FBA007808303E83120313DC005C08E4006408FE
:100FCA00DB00630884005B08831380000130DB00C8
:100FDA005B08E307AF2F63088400831380010800CE
:100FEA0083132030840058300A128A11CC238301DB
:060FFA000A128A11462EC6
:04400E00D4E3FFFFF9
:00000001FF
