:020000040000FA
:060000000A128A110C280F
:10000800FE00030EF1000A08F2000A128A11842E7B
:100018000A128A110F28F801F901FA018313203016
:1000280084004C300A128A11C82683010A128A11E8
:100038001D280A128A116B230A128A110A128A11C0
:10004800B4260A128A110A128A11DF260A128A11A4
:100058000230F3000030F4000A128A11D0260A1286
:100068008A110130F3000030F4000A128A11D026F8
:100078000A128A110A128A11D8260A128A110A1239
:100088008A11DF260A128A110330F3000030F400C7
:100098000A128A11D0260A128A110030F300F400DD
:1000A8000A128A11B7250A128A11730883120313D8
:1000B800E2006208A8000A128A11D8260A128A11D8
:1000C8000A128A11DF260A128A110230F300003060
:1000D800F4000A128A11D0260A128A110230F3009B
:1000E8000030F4000A128A11D0260A128A110A1264
:1000F8008A11D8260A128A110A128A11DF260A12D0
:100108008A110330F3000030F4000A128A11D02655
:100118000A128A110030F300F4000A128A11B72576
:100128000A128A11730883120313E2006208A700F7
:100138000A128A11D8260A128A1100308312031370
:10014800CE00CF000A128A1194240A128A1183124F
:1001580003134E08E2006208AF000130CE00003001
:10016800CF000A128A1194240A128A1183120313E7
:100178004E08E2006208B3000230CE000030CF0023
:100188000A128A1194240A128A11831203134E0840
:10019800E2006208B20032081F39E2006208B100CA
:1001A80032082039E2006208B0000A128A11DF26FC
:1001B8000A128A110530F3000030F4000A128A117D
:1001C800D0260A128A110030F300F4000A128A11AC
:1001D800B7250A128A11730883120313E200620812
:1001E800A6000A128A11D8260A128A110A128A113E
:1001F800DF260A128A110430F3000030F4000A12D4
:100208008A11D0260A128A11831203133308E200D6
:10021800E3016208F3006308F4000A128A11D02689
:100228000A128A110A128A11D8260A128A110A1287
:100238008A11DF260A128A110430F3000030F40014
:100248000A128A11D0260A128A118312031331085E
:10025800E200E3016208F3006308F4000A128A115D
:10026800D0260A128A110A128A11D8260A128A116D
:100278000A128A11DF260A128A110630F3000030AA
:10028800F4000A128A11D0260A128A110130F300EA
:100298000030F4000A128A11D0260A128A110A12B2
:1002A8008A11D8260A128A110A128A11DF260A121E
:1002B8008A110730F3000030F4000A128A11D026A0
:1002C8000A128A110030F300F4000A128A11B725C5
:1002D8000A128A11730883120313E2006208A50048
:1002E8000A128A11D8260A128A110A128A11DF26DE
:1002F8000A128A110630F3000030F4000A128A113B
:10030800D0260A128A110230F3000030F4000A12D3
:100318008A11D0260A128A110A128A11D8260A12BC
:100328008A110A128A11DF260A128A110730F3008D
:100338000030F4000A128A11D0260A128A110030FD
:10034800F300F4000A128A11B7250A128A117308F9
:1003580083120313E2006208A4000A128A11D82645
:100368000A128A1196308312031337020318322AAD
:100378001E30E2006208D5003108E300E40163089A
:10038800D6006408D70038300A128A1191220A125E
:100398008A11F601F60A02300A128A1157260A1241
:1003A8008A113830F5000030F6000A128A11E52566
:1003B8000A128A111D3083120313E2006208D50065
:1003C8003308E300E4016308D6006408D700383036
:1003D8000A128A1191220A128A113830F500003067
:1003E800F6000A128A11E5250A128A1113308312BF
:1003F8000313E2006208D5002508E300E40163085E
:10040800D6006408D70038300A128A1191220A12DD
:100418008A113830F5000030F6000A128A11E525F5
:100428000A128A11183083120313E2006208D500F9
:100438002408E300E4016308D6006408D7003830D4
:100448000A128A1191220A128A113830F5000030F6
:10045800F6000A128A11E5250A128A1197308312CA
:1004680003133702031C22282130E2006208D5005A
:100478002808E300E4016308D6006408D700383090
:100488000A128A1191220A128A11F601F60A02301A
:100498000A128A1157260A128A113830F5000030DC
:1004A800F6000A128A11E5250A128A111E308312F3
:1004B8000313E2006208D5002708E300E40163089B
:1004C800D6006408D70038300A128A1191220A121D
:1004D8008A113830F5000030F6000A128A11E52535
:1004E8000A128A11831203132603031D7D2A25305D
:1004F8007E2A2830E2006208D50038300A128A11B4
:1005080091220A128A113830F5000030F6000A12DA
:100518008A11E5250A128A11222883120313E000A2
:100528005630D8005808DB000130D507FF30550792
:1005380084000A128A111B250A128A11D800580849
:10054800E10061080319662B253061060319B82AF2
:100558006108D800600884005808831380000130BF
:10056800D8005808E007982ADC010130D507FF3089
:10057800550784000A128A111B250A128A11E10004
:10058800D800D9015908003A0319CB2A982A5808E3
:10059800003A0319662B643A0319D62A0D3A03194F
:1005A800D62A982A5B08840083130008DE00840A90
:1005B8000008DF000230D8005808DB07DF1FED2AEB
:1005C8000330D8005808DC04DE09DF09DE0A031905
:1005D800DF0AE101E10A6108D8005807013E8400FA
:1005E8000A128A111B250A128A11D9000A128A11C5
:1005F8001B250A128A11DA005A085F02031D062B0E
:1006080059085E02031C102B0130D8005808E10776
:1006180005306106031DEF2A5C08033903191F2BF7
:100628002D30D800600884005808831380000130FA
:10063800D8005808E0076108D8005808DD00FF30E6
:10064800D8005808DD075D0A0319982A0A30CF0038
:100658000030D0005D08D8005807013E84000A1217
:100668008A111B250A128A11F3000A128A111B2506
:100678000A128A11F4005F08F6005E08F5000A12F3
:100688008A11D3240A128A11740883120313D20020
:100698007308D1000A128A1183250A128A1183125B
:1006A80003134F08303ED9005908E1006108D8000B
:1006B800600884005808831380000130D800580867
:1006C800E007232B600884008313800108000730AB
:1006D8000A128A11A6260A128A11003083120313FD
:1006E800DC000130DB008630DA00A030D9000A12C5
:1006F8008A114B250A128A11831603138501831662
:10070800031788010A128A1140240A128A11033039
:1007180083120313DD005D08F30000300A128A110A
:1007280037260A128A11F601F60A01300A128A11CE
:1007380057260A128A110B30F5008030F6000A128B
:100748008A11E5250A128A110B3083120313DF0080
:100758002630DE005D30DD00DD0BB02BDE0BB02B6C
:10076800DF0BB02B003083120313CC00CD00003018
:10077800CE00CF000A128A110F260A128A11013000
:1007880083120313CC000030CD000630CE000030B9
:10079800CF000A128A110F260A128A110230831218
:1007A8000313CC000030CD001130CE000030CF0054
:1007B8000A128A110F260800003083120313D7008B
:1007C8000030D6000030D5000030D4004F084E0469
:1007D8004D044C040319372CD801D80ACF1B022C1E
:1007E8000130F3000310CC0DCD0DCE0DCF0DF30B62
:1007F800F62B0130F3007308D807F22B0130F30011
:100808000310D40DD50DD60DD70DF30B042C4F08BE
:100818005302031D192C4E085202031D192C4D08B2
:100828005102031D192C4C085002031C2A2C4C0899
:10083800D0024D08031C4D0FD1024E08031C4E0F69
:10084800D2024F08031C4F0FD30254140130031077
:10085800CF0CCE0CCD0CCC0CFF3E031D2B2C013045
:10086800D802031D022C5708CF005608CE005508A1
:10087800CD005408CC0008008312031386013430DD
:10088800F700F130F600F60B472CF70B472C4C2CF1
:1008980030300A128A1170260A128A110D30F700B8
:1008A800FB30F600F60B562CF70B562C5B2C303031
:1008B8000A128A1170260A128A116D30F600F60B98
:1008C800632C662C30300A128A1170260A128A119B
:1008D8006D30F600F60B6E2C712C38300A128A1126
:1008E80070260A128A1114300A128A1170260A1206
:1008F8008A1101300A128A1170260A128A110630EA
:100908000A128A1170260A128A110C300A128A11E8
:1009180070260A128A1102300A128A1170260800FB
:100928000A128A11DF260A128A11D030F300003029
:10093800F4000A128A11D0260A128A1183120313AC
:100948004F08F4004E08F3000A128A11D0260A1242
:100958008A110A128A11E6260A128A11D130F30086
:100968000030F4000A128A11D0260A128A110030C7
:10097800F300F4000A128A11B7250A128A117408C2
:1009880083120313D1007308D0000A128A11D826E3
:10099800831203135108CF005008CE0008008312B9
:1009A8000313CD01CE017308740403190C2DCC0177
:1009B800CC0AF41BEB2C01300310F30DF40DFF3EB1
:1009C800031DE02C0130F7007708CC07DD2C01303F
:1009D8000310CD0DCE0DFF3E031DEC2C74087602DE
:1009E800031DF82C73087502031C012D7308F5020A
:1009F8007408031CF603F6024D1401300310F40CBE
:100A0800F30CFF3E031D022D0130CC02031DEB2C1D
:100A18004E08F4004D08F3000800FF1B1B2D83133C
:100A28007F1883170008840A0319FF0A0800053095
:100A38008A000408840A82070034013400340A3426
:100A4800003464340034E834033410342734533425
:100A5800693420347034753464346F34003420348D
:100A68004834253464340034203454342534643410
:100A780000343A342534643400344434253464343E
:100A880000345334493400344E344F340034283061
:100A98008312031394008316031391018312031323
:100AA8005908F4005A08F5005B08F6005C08F700DE
:100AB80002300310F40DF50DF60DF70DFF3E031D82
:100AC8005D2D7708CF007608CE007508CD00740834
:100AD800CC000030D3007A30D2001230D100003080
:100AE800D0000A128A11E023831203134C08FF3E38
:100AF80083160313930094018715071608008312C1
:100B080003134F0850040319B22DD401D40AD01B83
:100B1800992D01300310CF0DD00DFF3E031D8E2DF2
:100B28000130D3005308D4078B2D50085202031DFF
:100B38009F2D4F085102031CA72D4F08D1025008C2
:100B4800031CD203D20201300310D00CCF0CFF3E9D
:100B5800031DA82D0130D402031D992D5208D00081
:100B68005108CF0008000A128A11BF260A128A11FA
:100B78008316031391150A128A11BF260A128A11C5
:100B8800831203131308F500F6017508CC007608E4
:100B9800CD000A128A11BF260A128A11730374043F
:100BA800031DDA2D831603139112DD2D831603130B
:100BB80091161116831203134D08F4004C08F30024
:100BC800080083120313CC014C08750784007608CB
:100BD8000318760AFF000A128A1111250A128A11CF
:100BE800003A031908004C087507840076080318B2
:100BF800760AFF000A128A1111250A128A110A12AE
:100C08008A1196260A128A110130F7007708831292
:100C18000313CC07E82D0A128A11DF260A128A115B
:100C2800D030F3000030F4000A128A11D0260A12DC
:100C38008A11831203134D08F4004C08F3000A12BA
:100C48008A11D0260A128A11831203134F08F4005E
:100C58004E08F3000A128A11D0260A128A110A12C3
:100C68008A11D8260800F600831203139013101374
:100C78007308F400F40E10087406CF397406900057
:100C88009011901010140B170C10831603130C14EA
:100C98008B177608F400F5017408831203138E008D
:100CA80075088F00080083120313CD004D03031D40
:100CB800622E76087F3EF7007708CC0002304D069A
:100CC800031D6B2E7608BF3EF7007708CC004C0852
:100CD8000A128A1170260800F50083120313051002
:100CE8007508860085140B30F4006230F300F30BAE
:100CF8007B2EF40B7B2E0000831203138510080053
:100D0800831203130C1C8F2E0130F0007008B707F4
:100D18008E018F010C1072088A00710E8300FE0E7E
:100D28007E0E0900F400831203130514740886006C
:100D380085141A30F300F30B9F2E0000831203135F
:100D480085100800F4007408F300F30E83160313EB
:100D58000F0873068F3973068F000F148F11080060
:100D680000300A128A1170260A128A1101300A12FA
:100D78008A1170260800831603131419BF2E110850
:100D88001F3903190800BF2E64008001840A040675
:100D9800031900340406C92E0A128A11BF267308E3
:100DA80083120313930008000A128A11BF268316C0
:100DB8000313111508000A128A11BF26831603139C
:100DC800111408000A128A11BF26831603139114FE
:020DD800080011
:04400E00D4E0FFFFFC
:00000001FF
