:020000040000FA
:060000000A128A110C280F
:10000800FE00030EF1000A08F2000A128A15CE2E2D
:100018000A128A110F280A128A11FB260A128A115B
:10002800E6000A128A11FC260A128A11E7008313D5
:10003800203084004D300A128A159926F801F901FA
:10004800FA0183010A128A1129280A128A11CE2577
:100058000A128A11013083120313E3006308A4070C
:100068000A128A1583260A128A112030F3000030FA
:10007800F4000A128A1591260A128A110130F30037
:100088000030F4000A128A1591260A128A110A12FF
:100098008A158A260A128A111A3083120313E40079
:1000A800F730E300E30B5628E40B56285B280A12C6
:1000B8008A1583260A128A112130F3000030F400D1
:1000C8000A128A1591260A128A110030F300F400E8
:1000D8000A128A1566270A128A11730883120313F3
:1000E800E3006308A8000A128A158A260A128A11F0
:1000F8001A3083120313E400F730E300E30B82287D
:10010800E40B822887280A128A1583260A128A1184
:100118002030F3000030F4000A128A1591260A12E2
:100128008A110230F3000030F4000A128A15912671
:100138000A128A110A128A158A260A128A111A3094
:1001480083120313E400F730E300E30BA928E40B60
:10015800A928AE280A128A1583260A128A11213084
:10016800F3000030F4000A128A1591260A128A1147
:100178000030F300F4000A128A1566270A128A1161
:10018800730883120313E3006308A7000A128A1591
:100198008A260A128A111A3083120313E400F730F0
:1001A800E300E30BD528E40BD528DA2800308312C6
:1001B8000313CF00D0000A128A11B2270A128A113B
:1001C800831203134F08E3006308B0001A30831248
:1001D8000313E400F730E300E30BF028E40BF02806
:1001E800F528013083120313CF000030D0000A1223
:1001F8008A11B2270A128A11831203134F08E300E7
:100208006308B4001A3083120313E400F730E300E4
:10021800E30B0C29E40B0C29112902308312031378
:10022800CF000030D0000A128A11B2270A128A11B0
:10023800831203134F08E3006308B3001A308312D4
:100248000313E400F730E300E30B2829E40B282923
:100258002D298312031333081F39E3006308B20002
:100268001A3083120313E400F730E300E30B3A2952
:10027800E40B3A293F298312031333082039E3009A
:100288006308B1001A3083120313E400F730E30067
:10029800E30B4C29E40B4C2951290A128A158326B1
:1002A8000A128A113030F3000030F4000A128A155D
:1002B80091260A128A11831203133408E300E40119
:1002C8006308F3006408F4000A128A1591260A12DA
:1002D8008A110A128A158A260A128A111A3083127A
:1002E8000313E400F730E300E30B7829E40B7829E3
:1002F8007D290A128A1583260A128A113130F300E1
:100308000030F4000A128A1591260A128A11003068
:10031800F300F4000A128A1566270A128A11730874
:1003280083120313E3006308A6000A128A158A26BB
:100338000A128A111A3083120313E400F730E3001B
:10034800E30BA429E40BA429A9290A128A158326F8
:100358000A128A113030F3000030F4000A128A15AC
:1003680091260A128A11831203133208E300E4016A
:100378006308F3006408F4000A128A1591260A1229
:100388008A110A128A158A260A128A111A308312C9
:100398000313E400F730E300E30BD029E40BD02982
:1003A800D5298312031308150A128A1583260A12FF
:1003B8008A114030F3000030F4000A128A159126A1
:1003C8000A128A110130F3000030F4000A128A156B
:1003D80091260A128A110A128A158A260A128A1185
:1003E8001A3083120313E400F730E300E30BFA2911
:1003F800E40BFA29FF290A128A1583260A128A11A0
:100408004130F3000030F4000A128A1591260A12CE
:100418008A110030F300F4000A128A1566270A12BE
:100428008A11730883120313E3006308A5000A12F4
:100438008A158A260A128A111A3083120313E400D5
:10044800F730E300E30B262AE40B262A2B2A0A12AC
:100458008A1583260A128A114030F3000030F4000E
:100468000A128A1591260A128A110230F300003006
:10047800F4000A128A1591260A128A110A128A159C
:100488008A260A128A111A3083120313E400F730FD
:10049800E300E30B4D2AE40B4D2A522A0A128A156F
:1004A80083260A128A114130F3000030F4000A1240
:1004B8008A1591260A128A110030F300F4000A12F4
:1004C8008A1566270A128A11730883120313E30038
:1004D8006308E7000A128A158A260A128A111A3056
:1004E80083120313E400F730E300E30B792AE40BEB
:1004F800792A7E2A83120313081188170A128A158B
:1005080075260A128A1183120313E3006308AF00E9
:100518002F03031D912A2508B42A02302F06031D34
:10052800972A2808B42A03302F06031D9D2A670836
:10053800B42A04302F06031DA32A2608B42A05303E
:100548002F06031DA92A3208B42A06302F06031DD8
:10055800AF2A3408B42A07302F06031DB92A270802
:100568000A128A15A1260A128A1183120313881304
:100578000A128A15B3260A128A11B130831203139C
:1005880038020318CB2BF601F60A01300A128A1139
:10059800E2260A128A114530F5008030F6000A1268
:1005A8008A153C270A128A11643083120313270222
:1005B8000318002B3130E3006308D6002708E40055
:1005C800E5016408D7006508D80039300A128A1195
:1005D800F4240A128A11F601F60A02300A128A1164
:1005E800E2260A128A113930F5000030F6000A12A4
:1005F8008A153C270A128A116430831203132702D2
:10060800031C282B3E30E3006308D6002708E400CB
:10061800E5016408D7006508D80039300A128A1144
:10062800F4240A128A11F601F60A02300A128A1113
:10063800E2260A128A113930F5000030F6000A1253
:100648008A153C270A128A11063083120313E30025
:100658006308F60001300A128A11E2260A128A118A
:100668001C30F5008030F6000A128A153C270A1261
:100678008A1164308312031328020318692B163079
:10068800E3006308D6002808E400E5016408D70001
:100698006508D80039300A128A11F4240A128A111E
:1006A800063083120313E3006308F60002300A12CF
:1006B8008A11E2260A128A113930F5000030F60054
:1006C8000A128A153C270A128A116430831203130E
:1006D8002802031C952B2C30E3006308D600280859
:1006E800E400E5016408D7006508D80039300A122B
:1006F8008A11F4240A128A11063083120313E300C4
:100708006308F60002300A128A11E2260A128A11D8
:100718003930F5000030F6000A128A153C270A1213
:100728008A110C3083120313E3006308F6000130CA
:100738000A128A11E2260A128A114130F500803025
:10074800F6000A128A153C270A128A110C30831205
:100758000313E3006308F60002300A128A11E22646
:100768000A128A11831203132603031DBD2B493075
:10077800C32B2608031DC22B4C30C32B3530F50084
:100788008030F6000A128A153C270A128A11B13005
:10079800831203133802031C2E28F601F60A0130CF
:1007A8000A128A11E2260A128A112730F5008030CF
:1007B800F6000A128A153C270A128A113E30831263
:1007C8000313E3006308D6003208E400E501640877
:1007D800D7006508D80039300A128A11F4240A12A1
:1007E8008A11F601F60A02300A128A11E2260A1262
:1007F8008A113930F5000030F6000A128A153C27B4
:100808000A128A113D3083120313E3006308D600ED
:100818003408E400E5016408D7006508D8003930D9
:100828000A128A11F4240A128A110230831203135D
:10083800E3006308F60002300A128A11E2260A125F
:100848008A113930F5000030F6000A128A153C2763
:100858000A128A11073083120313E3006308F600B3
:1008680001300A128A11E2260A128A110B30F500A9
:100878008030F6000A128A153C270A128A11643061
:1008880083120313250203186F2C3130E300630829
:10089800D6002508E400E5016408D7006508D800FB
:1008A80039300A128A11F4240A128A110730831285
:1008B8000313E3006308F60002300A128A11E226E5
:1008C8000A128A113930F5000030F6000A128A152A
:1008D8003C270A128A116430831203132502031C71
:1008E8009B2C3E30E3006308D6002508E400E501B0
:1008F8006408D7006508D80039300A128A11F42430
:100908000A128A11073083120313E3006308F60002
:1009180002300A128A11E2260A128A113930F500C9
:100928000030F6000A128A153C270A128A11643030
:100938008312031367020318C72C2230E3006308ED
:10094800D6006708E400E5016408D7006508D80008
:1009580039300A128A11F4240A128A110D308312CE
:100968000313E3006308F60002300A128A11E22634
:100978000A128A113930F5000030F6000A128A1579
:100988003C270A128A116430831203136702031C7E
:100998002E283930E3006308D6006708E400E50133
:1009A8006408D7006508D80039300A128A11F4247F
:1009B8000A128A110D3083120313E3006308F6004C
:1009C80002300A128A11E2260A128A113930F50019
:1009D8000030F6000A128A153C270A128A112E28BE
:1009E80083120313E1005730D9005908DC000130A5
:1009F800D607FF30560784000A128A110A270A12FE
:100A08008A11D9005908E20062080319C92D253056
:100A1800620603191B2D6208D90061088400590871
:100A2800831380000130D9005908E107FB2CDD0150
:100A38000130D607FF30560784000A128A110A27A8
:100A48000A128A11E200D900DA015A08003A031999
:100A58002E2DFB2C5908003A0319C92D643A0319A5
:100A6800392D0D3A0319392DFB2C5C0884008313AA
:100A78000008DF00840A0008E0000230D9005908A5
:100A8800DC07E01F502D0330D9005908DD04DF09C9
:100A9800E009DF0A0319E00AE201E20A6208D90064
:100AA8005907013E84000A128A110A270A128A117C
:100AB800DA000A128A110A270A128A11DB005B0877
:100AC8006002031D692D5A085F02031C732D013053
:100AD800D9005908E20705306206031D522D5D084A
:100AE80003390319822D2D30D90061088400590873
:100AF800831380000130D9005908E1076208D90042
:100B08005908DE00FF30D9005908DE075E0A0319CC
:100B1800FB2C0A30D0000030D1005E08D9005907FC
:100B2800013E84000A128A110A270A128A11F30068
:100B38000A128A110A270A128A11F4006008F600BC
:100B48005F08F5000A128A11A4260A128A1174088D
:100B580083120313D3007308D2000A128A1594274C
:100B68000A128A11831203135008303EDA005A0819
:100B7800E2006208D90061088400590883138000E4
:100B88000130D9005908E107862D610884008313D4
:100B98008001080007300A128A11F1270A128A1107
:100BA800003083120313DD000130DC008630DB00E7
:100BB800A030DA000A128A15C8270A128A11831689
:100BC8000313850186018801871783160317880197
:100BD8008901831203138501860108110A128A11FB
:100BE8005E270A128A110A128A15B3260A128A1176
:100BF800033083120313DE005E08F30000300A128C
:100C08008A15F4260A128A11831603178711831688
:100C1800031318159A0151309A00181283120313FE
:100C280098178316031318139816831203131816AC
:100C38000030CD00CE000030CF00D0000A128A1557
:100C480014270A128A11013083120313CD000030D1
:100C5800CE000130CF000030D0000A128A151427C8
:100C68000A128A11023083120313CD000030CE001D
:100C78000430CF000030D0000A128A15142708006B
:100C8800003083120313D8000030D7000030D6009C
:100C98000030D50050084F044E044D0403199B2E14
:100CA800D901D90AD01B662E0130F3000310CD0DEF
:100CB800CE0DCF0DD00DF30B5A2E0130F300730873
:100CC800D907562E0130F3000310D50DD60DD70DD8
:100CD800D80DF30B682E50085402031D7D2E4F08C3
:100CE8005302031D7D2E4E085202031D7D2E4D0812
:100CF8005102031C8E2E4D08D1024E08031C4E0FC4
:100D0800D2024F08031C4F0FD3025008031C500F88
:100D1800D402551401300310D00CCF0CCE0CCD0CDE
:100D2800FF3E031D8F2E0130D902031D662E580881
:100D3800D0005708CF005608CE005508CD0008004F
:100D480083120313CE01CF01730874040319DD2E37
:100D5800CD01CD0AF41BBC2E01300310F30DF40DA8
:100D6800FF3E031DB12E0130F7007708CD07AE2EE8
:100D780001300310CE0DCF0DFF3E031DBD2E7408AC
:100D88007602031DC92E73087502031CD22E730840
:100D9800F5027408031CF603F6024E140130031022
:100DA800F40CF30CFF3E031DD32E0130CD02031DBE
:100DB800BC2E4F08F4004E08F300080083120313FA
:100DC800CE004E03031DED2E76087F3EF700770810
:100DD800CD0002304E06031DF62E7608BF3EF70002
:100DE8007708CD004D080A128A15E02608003E341F
:020DF8001B34AA
:100E0000FF1B0A2F83137F1883170008840A031916
:100E1000FF0A080007308A000408840A82070034A9
:100E2000013400340A34003464340034E8340334C8
:100E300010342734483475346D3420342B34203446
:100E4000543465346D347034003425346434633480
:100E50006D342034003444346934733474342E34A3
:100E600000342534643420344334003448346F343F
:100E70007234613400342534643463346D340034A6
:100E800025346434203400344E342F34413400345B
:100E900025346434433400343A3425346434003423
:100EA0004D346F34763400344C3475347A34003435
:100EB0005334693400344E346F34003483120313D6
:100EC00086013430F700F130F600F60B652FF70B92
:100ED000652F6A2F30300A128A15E0260A128A110D
:100EE0000D30F700FB30F600F60B742FF70B742F64
:100EF000792F30300A128A15E0260A128A116D30D5
:100F0000F600F60B812F842F30300A128A15E02666
:100F10000A128A116D30F600F60B8C2F8F2F3830A5
:100F20000A128A15E0260A128A1114300A128A154A
:100F3000E0260A128A1101300A128A15E0260A12E6
:100F40008A1106300A128A15E0260A128A110C301C
:100F50000A128A15E0260A128A1102300A128A152C
:100F6000E02608000A128A1583260A128A11D03058
:100F7000F3000030F4000A128A1591260A128A1131
:100F8000831203135008F4004F08F3000A128A1565
:100F900091260A128A110A128A157C260A128A11CF
:100FA000D130F3000030F4000A128A1591260A129B
:100FB0008A110030F300F4000A128A1566270A121B
:100FC0008A11740883120313D2007308D1000A1225
:100FD0008A158A26831203135208D0005108CF00C5
:100FE0000800F4007408F300F30E831603130F08CF
:0E0FF00073068F3973068F000F148F110800DF
:101CEA00831203138C1E752E8C121A0808000A120E
:101CFA008A15AA2683160313911408000A128A1554
:101D0A00AA2683160313111408000A128A15AA2692
:101D1A0083160313111508000A128A15AA267308D6
:101D2A00831203139300080064008001840A0406E6
:101D3A000319003404069A2EF300831203130C1EAF
:101D4A00A22E0C12730899000800831603131419A3
:101D5A00AA2E11081F3903190800AA2E00300A12E8
:101D6A008A15E0260A128A1501300A128A15E02617
:101D7A000800F400831203130514740886008514FE
:101D8A001A30F300F30BC72E0000831203138510D9
:101D9A000800831203130C1CD92E0130F0007008BE
:101DAA00B8078E018F010C1072088A00710E830029
:101DBA00FE0E7E0E0900F500831203130510750846
:101DCA00860085140B30F4006230F300F30BEB2E1F
:101DDA00F40BEB2E00008312031385100800F600A3
:101DEA0083120313901310137308F400F40E1008EF
:101DFA007406CF39740690009011901010140B17C6
:101E0A000C10831603130C148B177608F400F501D3
:101E1A007408831203138E0075088F0008000A12D3
:101E2A008A1583260A128A15D030F3000030F4008E
:101E3A000A128A1591260A128A15831203134E086A
:101E4A00F4004D08F3000A128A1591260A128A151F
:101E5A00831203135008F4004F08F3000A128A157C
:101E6A0091260A128A150A128A158A2608008312EE
:101E7A000313CD014D087507840076080318760A06
:101E8A00FF000A128A1100270A128A15003A03195A
:101E9A0008004D087507840076080318760AFF00C3
:101EAA000A128A1100270A128A150A128A15BE26F0
:101EBA000A128A150130F700770883120313CD0737
:101ECA003F2F0A128A15AA260A128A1583160313A5
:101EDA0091150A128A15AA260A128A158312031361
:101EEA001308F500F6017508CD007608CE000A122F
:101EFA008A15AA260A128A1573037404031D892FE8
:101F0A008316031391128C2F83160313911611163D
:101F1A00831203134E08F4004D08F30008008312DD
:101F2A000313500851040319C32FD501D50AD11B35
:101F3A00AA2F01300310D00DD10DFF3E031D9F2F94
:101F4A000130D4005408D5079C2F51085302031DB1
:101F5A00B02F50085202031CB82F5008D202510861
:101F6A00031CD303D30201300310D10CD00CFF3E63
:101F7A00031DB92F0130D502031DAA2F5308D10022
:101F8A005208D000080028308312031394008316E5
:101F9A0003139101831203135A08F4005B08F50036
:101FAA005C08F6005D08F70002300310F40DF50D29
:101FBA00F60DF70DFF3E031DDA2F7708D0007608DD
:101FCA00CF007508CE007408CD000030D4007A30F6
:101FDA00D3001230D2000030D1000A128A114426EE
:101FEA00831203134D08FF3E8316031393009401D3
:061FFA0087150716080020
:04400E00D4E0FFFFFC
:00000001FF
