:020000040000FA
:060000000A128A110C280F
:10000800FE00030EF1000A08F2000A128A15E32E18
:100018000A128A110F280A128A157A260A128A11D8
:10002800E6000A128A157B260A128A11E700831352
:10003800203084004D300A128A15A026F801F901F3
:10004800FA0183010A128A1129280A128A11CC2579
:100058000A128A118312031308110130E30063089E
:10006800A4070A128A158A260A128A112030F30078
:100078000030F4000A128A1598260A128A110130F3
:10008800F3000030F4000A128A1598260A128A1121
:100098000A128A1591260A128A111A30831203133A
:1000A800E400F730E300E30B5728E40B57285C28FB
:1000B8000A128A158A260A128A112130F3000030A2
:1000C800F4000A128A1598260A128A110030F300E1
:1000D800F4000A128A11D1270A128A1173088312AE
:1000E8000313E3006308A8000A128A1591260A126E
:1000F8008A111A3083120313E400F730E300E30B8C
:100108008328E40B832888280A128A158A260A126B
:100118008A112030F3000030F4000A128A1598265C
:100128000A128A110230F3000030F4000A128A150C
:1001380098260A128A110A128A1591260A128A1119
:100148001A3083120313E400F730E300E30BAA2804
:10015800E40BAA28AF280A128A158A260A128A11DD
:100168002130F3000030F4000A128A1598260A128A
:100178008A110030F300F4000A128A11D1270A12FA
:100188008A11730883120313E3006308A7000A1295
:100198008A1591260A128A111A3083120313E40071
:1001A800F730E300E30BD628E40BD628DB28003031
:1001B80083120313CF00D0000A128A1154270A129F
:1001C8008A11831203134F08E3006308B0001A3042
:1001D80083120313E400F730E300E30BF128E40B88
:1001E800F128F628013083120313CF000030D00025
:1001F8000A128A1154270A128A11831203134F080C
:10020800E3006308B4001A3083120313E400F730E4
:10021800E300E30B0D29E40B0D29122902308312A8
:100228000313CF000030D0000A128A1154270A1293
:100238008A11831203134F08E3006308B3001A30CE
:1002480083120313E400F730E300E30B2929E40BDE
:1002580029292E298312031333081F39E300630861
:10026800B2001A3083120313E400F730E300E30B03
:100278003B29E40B3B294029831203133308203917
:10028800E3006308B1001A3083120313E400F73067
:10029800E300E30B4D29E40B4D2952290A128A1574
:1002A8008A260A128A113030F3000030F4000A124C
:1002B8008A1598260A128A11831203133408E30058
:1002C800E4016308F3006408F4000A128A1598260A
:1002D8000A128A110A128A1591260A128A111A30EC
:1002E80083120313E400F730E300E30B7929E40BEE
:1002F80079297E290A128A158A260A128A1131302A
:10030800F3000030F4000A128A1598260A128A119E
:100318000030F300F4000A128A11D1270A128A1158
:10032800730883120313E3006308A6000A128A15F0
:1003380091260A128A111A3083120313E400F73047
:10034800E300E30BA529E40BA529AA290A128A15BB
:100358008A260A128A113030F3000030F4000A129B
:100368008A1598260A128A11831203133208E300A9
:10037800E4016308F3006408F4000A128A15982659
:100388000A128A110A128A1591260A128A111A303B
:1003980083120313E400F730E300E30BD129E40BE5
:1003A800D129D6290A128A158A260A128A114030BA
:1003B800F3000030F4000A128A1598260A128A11EE
:1003C8000130F3000030F4000A128A1598260A1248
:1003D8008A110A128A1591260A128A111A30831272
:1003E8000313E400F730E300E30BF829E40BF829E2
:1003F800FD290A128A158A260A128A114130F30049
:100408000030F4000A128A1598260A128A11003060
:10041800F300F4000A128A11D1270A128A1173080C
:1004280083120313E3006308A5000A128A159126B4
:100438000A128A111A3083120313E400F730E3001A
:10044800E30B242AE40B242A292A0A128A158A266D
:100458000A128A114030F3000030F4000A128A159B
:1004680098260A128A110230F3000030F4000A12AA
:100478008A1598260A128A110A128A1591260A12D2
:100488008A111A3083120313E400F730E300E30BF8
:100498004B2AE40B4B2A502A0A128A158A260A127A
:1004A8008A114130F3000030F4000A128A159826A8
:1004B8000A128A110030F300F4000A128A11D127B7
:1004C8000A128A11730883120313E3006308E70012
:1004D8000A128A1591260A128A111A3083120313F6
:1004E800E400F730E300E30B772AE40B772A7C2A51
:1004F8008312031388170A128A157C260A128A1196
:1005080083120313E3006308AF0008152F03031DCC
:100518008F2A2508B22A02302F06031D952A28089B
:10052800B22A03302F06031D9B2A6708B22A04301B
:100538002F06031DA12A2608B22A05302F06031DFF
:10054800A72A3208B22A06302F06031DAD2A34081E
:10055800B22A07302F06031DB72A27080A128A1560
:10056800A8260A128A118312031388130A128A15FD
:10057800BA260A128A11B1308312031338020318FB
:10058800C92BF601F60A01300A128A1509270A1240
:100598008A114530F5008030F6000A128A156A275C
:1005A8000A128A1164308312031327020318FE2AE1
:1005B8003130E3006308D6002708E400E501640849
:1005C800D7006508D80039300A128A11F2240A12B5
:1005D8008A11F601F60A02300A128A1509270A1248
:1005E8008A113930F5000030F6000A128A156A2798
:1005F8000A128A116430831203132702031C262B64
:100608003E30E3006308D6002708E400E5016408EB
:10061800D7006508D80039300A128A11F2240A1264
:100628008A11F601F60A02300A128A1509270A12F7
:100638008A113930F5000030F6000A128A156A2747
:100648000A128A11063083120313E3006308F600C6
:1006580001300A128A1509270A128A111C30F5007E
:100668008030F6000A128A156A270A128A11643045
:100678008312031328020318672B1630E30063085C
:10068800D6002808E400E5016408D7006508D8000A
:1006980039300A128A11F2240A128A11063083129A
:1006A8000313E3006308F60002300A128A150927CB
:1006B8000A128A113930F5000030F6000A128A153C
:1006C8006A270A128A116430831203132802031C52
:1006D800932B2C30E3006308D6002808E400E501DA
:1006E8006408D7006508D80039300A128A11F22444
:1006F8000A128A11063083120313E3006308F60016
:1007080002300A128A1509270A128A113930F500AF
:100718000030F6000A128A156A270A128A110C306C
:1007280083120313E3006308F60001300A128A15E6
:1007380009270A128A114130F5008030F6000A12A2
:100748008A156A270A128A110C3083120313E300F0
:100758006308F60002300A128A1509270A128A115C
:10076800831203132603031DBB2B4930C12B260814
:10077800031DC02B4C30C12B3530F5008030F600FE
:100788000A128A156A270A128A11B13083120313D2
:100798003802031C2E28F601F60A01300A128A15BF
:1007A80009270A128A112730F5008030F6000A124C
:1007B8008A156A270A128A113E3083120313E3004E
:1007C8006308D6003208E400E5016408D70065082C
:1007D800D80039300A128A11F2240A128A11F60155
:1007E800F60A02300A128A1509270A128A113930C4
:1007F800F5000030F6000A128A156A270A128A11D3
:100808003D3083120313E3006308D6003408E40084
:10081800E5016408D7006508D80039300A128A1142
:10082800F2240A128A11023083120313E3006308C8
:10083800F60002300A128A1509270A128A1139307D
:10084800F5000030F6000A128A156A270A128A1182
:10085800073083120313E3006308F60001300A121D
:100868008A1509270A128A110B30F5008030F60024
:100878000A128A156A270A128A116430831203132E
:10088800250203186D2C3130E3006308D6002508D3
:10089800E400E5016408D7006508D80039300A1279
:1008A8008A11F2240A128A11073083120313E30013
:1008B8006308F60002300A128A1509270A128A11FB
:1008C8003930F5000030F6000A128A156A270A1234
:1008D8008A116430831203132502031C992C3E30BD
:1008E800E3006308D6002508E400E5016408D700A2
:1008F8006508D80039300A128A11F2240A128A11BE
:10090800073083120313E3006308F60002300A126B
:100918008A1509270A128A113930F5000030F600C5
:100928000A128A156A270A128A116430831203137D
:1009380067020318C52C2230E3006308D600670855
:10094800E400E5016408D7006508D80039300A12C8
:100958008A11F2240A128A110D3083120313E3005C
:100968006308F60002300A128A1509270A128A114A
:100978003930F5000030F6000A128A156A270A1283
:100988008A116430831203136702031C2E2839303E
:10099800E3006308D6006708E400E5016408D700AF
:1009A8006508D80039300A128A11F2240A128A110D
:1009B8000D3083120313E3006308F60002300A12B5
:1009C8008A1509270A128A113930F5000030F60015
:1009D8000A128A156A270A128A112E28831203130B
:1009E800E1005730D9005908DC000130D607FF3044
:1009F800560784000A128A11AC260A128A11D900F5
:100A08005908E20062080319C72D25306206031948
:100A1800192D6208D90061088400590883138000E1
:100A28000130D9005908E107F92CDD010130D6075A
:100A3800FF30560784000A128A11AC260A128A115E
:100A4800E200D900DA015A08003A03192C2DF92CD2
:100A58005908003A0319C72D643A0319372D0D3A7E
:100A68000319372DF92C5C08840083130008DF0074
:100A7800840A0008E0000230D9005908DC07E01FAA
:100A88004E2D0330D9005908DD04DF09E009DF0ADB
:100A98000319E00AE201E20A6208D9005907013E97
:100AA80084000A128A11AC260A128A11DA000A1284
:100AB8008A11AC260A128A11DB005B086002031D4A
:100AC800672D5A085F02031C712D0130D90059089F
:100AD800E20705306206031D502D5D08033903192E
:100AE800802D2D30D90061088400590883138000B7
:100AF8000130D9005908E1076208D9005908DE0019
:100B0800FF30D9005908DE075E0A0319F92C0A30AC
:100B1800D0000030D1005E08D9005907013E84009A
:100B28000A128A11AC260A128A11F3000A128A11D3
:100B3800AC260A128A11F4006008F6005F08F50076
:100B48000A128A1193270A128A117408831203134E
:100B5800D3007308D2000A128A1594270A128A1140
:100B6800831203135008303EDA005A08E200620884
:100B7800D900610884005908831380000130D90026
:100B88005908E107842D6108840083138001080057
:100B980007300A128A15C5260A128A1100308312F4
:100BA8000313DD000130DC008630DB00A030DA0002
:100BB8000A128A15C8270A128A1183160313850197
:100BC8008601880187178316031788018901831214
:100BD80003138501860108110A128A1100270A12D7
:100BE8008A110A128A15BA260A128A110330831248
:100BF8000313DE005E08F30000300A128A1522276C
:100C08000A128A11831603178711831603131815FE
:100C18009A0151309A0018128312031398178316F9
:100C28000313181398168312031318160030CD00F7
:100C3800CE000030CF00D0000A128A1542270A12CF
:100C48008A11013083120313CD000030CE00013029
:100C5800CF000030D0000A128A1542270A128A11E2
:100C6800023083120313CD000030CE000430CF00D1
:100C78000030D0000A128A1542270800003083127B
:100C88000313D8000030D7000030D6000030D5005C
:100C980050084F044E044D040319992ED901D90A5E
:100CA800D01B642E0130F3000310CD0DCE0DCF0DF7
:100CB800D00DF30B582E0130F3007308D907542ECA
:100CC8000130F3000310D50DD60DD70DD80DF30B59
:100CD800662E50085402031D7B2E4F085302031D35
:100CE8007B2E4E085202031D7B2E4D085102031C19
:100CF8008C2E4D08D1024E08031C4E0FD2024F080D
:100D0800031C4F0FD3025008031C500FD402551474
:100D180001300310D00CCF0CCE0CCD0CFF3E031DC0
:100D28008D2E0130D902031D642E5808D0005708B3
:100D3800CF005608CE005508CD000800FF1BAC2E8A
:100D480083137F1883170008840A0319FF0A080011
:100D580006308A000408840A82070034013400340B
:100D68000A34003464340034E8340334103427344B
:100D7800483475346D3420342B342034543465347D
:100D88006D34703400342534643463346D34203465
:100D9800003444346934733474342E3400342534C4
:100DA800643420344334003448346F34723461344A
:100DB80000342534643463346D34003425346434A9
:100DC800203400344E342F34413400342534643414
:100DD800433400343A342534643400344D346F34A9
:100DE800763400344C3475347A34003453346934EE
:100DF80000344E346F3400348312031386013430C8
:100E0800F700F130F600F60B072FF70B072F0C2F22
:100E180030300A128A15F5260A128A110D30F700A9
:100E2800FB30F600F60B162FF70B162F1B2F303062
:100E38000A128A15F5260A128A116D30F600F60B89
:100E4800232F262F30300A128A15F5260A128A1106
:100E58006D30F600F60B2E2F312F38300A128A1516
:100E6800F5260A128A1114300A128A15F5260A1272
:100E78008A1101300A128A15F5260A128A110630DB
:100E88000A128A15F5260A128A110C300A128A15D6
:100E9800F5260A128A1102300A128A15F526080068
:100EA8000A128A158A260A128A11D030F3000030F5
:100EB800F4000A128A1598260A128A11831203135B
:100EC8005008F4004F08F3000A128A1598260A12EF
:100ED8008A110A128A1583260A128A11D130F30060
:100EE8000030F4000A128A1598260A128A11003076
:100EF800F300F4000A128A11D1270A128A11740821
:100F080083120313D2007308D1000A128A1591269E
:100F1800831203135208D0005108CF00080083122F
:100F28000313CE01CF01730874040319CC2FCD012C
:100F3800CD0AF41BAB2F01300310F30DF40DFF3E67
:100F4800031DA02F0130F7007708CD079D2F013032
:100F58000310CE0DCF0DFF3E031DAC2F7408760293
:100F6800031DB82F73087502031CC12F7308F502FF
:100F78007408031CF603F6024E1401300310F40C37
:100F8800F30CFF3E031DC22F0130CD02031DAB2F12
:100F98004F08F4004E08F30008000A128A15B1261B
:100FA8000A128A118316031391150A128A15B1269B
:100FB8000A128A11831203131308F500F601750843
:100FC800CD007608CE000A128A15B1260A128A11B7
:100FD80073037404031DF42F831603139112F72F60
:100FE8008316031391161116831203134E08F40087
:060FF8004D08F3000800A3
:101CF4003E341B34831203138C1E7C2E8C121A0860
:101D040008000A128A15B1268316031391140800D9
:101D14000A128A15B12683160313111408000A1235
:101D24008A15B12683160313111508000A128A15A1
:101D3400B126730883120313930008006400800122
:101D4400840A0406031900340406A12EF300831246
:101D540003130C1EA92E0C12730899000800831695
:101D640003131419B12E11081F3903190800B12ED9
:101D740000300A128A15F5260A128A1501300A1251
:101D84008A15F5260800F4007408F300F30E831690
:101D940003130F0873068F3973068F000F148F1106
:101DA4000800F400831203130514740886008514D4
:101DB4001A30F300F30BDC2E00008312031385109A
:101DC4000800831203130C1CEE2E0130F00070087F
:101DD400B8078E018F010C1072088A00710E8300FF
:101DE400FE0E7E0E0900F50083120313051075081C
:101DF400860085140B30F4006230F300F30B002FDF
:101E0400F40B002F000083120313851008008312C3
:101E14000313CE004E03031D142F76087F3EF700F4
:101E24007708CD0002304E06031D1D2F7608BF3EF5
:101E3400F7007708CD004D080A128A15F526080028
:101E4400F60083120313901310137308F400F40EB6
:101E540010087406CF397406900090119010101475
:101E64000B170C10831603130C148B177608F4004D
:101E7400F5017408831203138E0075088F0008009F
:101E84000A128A158A260A128A15D030F300003005
:101E9400F4000A128A1598260A128A15831203136B
:101EA4004E08F4004D08F3000A128A1598260A1207
:101EB4008A15831203135008F4004F08F3000A1222
:101EC4008A1598260A128A150A128A15912608007C
:101ED40083120313CD014D08750784007608031897
:101EE400760AFF000A128A11A2260A128A15003AFB
:101EF400031908004D087507840076080318760A4C
:101F0400FF000A128A11A2260A128A150A128A15D9
:101F1400D3260A128A150130F700770883120313B7
:101F2400CD076D2F83120313500851040319C32FD7
:101F3400D501D50AD11BAA2F01300310D00DD10D24
:101F4400FF3E031D9F2F0130D4005408D5079C2F5A
:101F540051085302031DB02F50085202031CB82F1E
:101F64005008D2025108031CD303D30201300310DA
:101F7400D10CD00CFF3E031DB92F0130D502031D37
:101F8400AA2F5308D1005208D00008002830831229
:101F940003139400831603139101831203135A0845
:101FA400F4005B08F5005C08F6005D08F7000230F9
:101FB4000310F40DF50DF60DF70DFF3E031DDA2F9A
:101FC4007708D0007608CF007508CE007408CD00DD
:101FD4000030D4007A30D3001230D2000030D10067
:101FE4000A128A114226831203134D08FF3E8316F8
:0C1FF400031393009401871507160800E2
:04400E00D4E0FFFFFC
:00000001FF
