:020000040000FA
:060000000A128A110C280F
:10000800FE00030EF2000A08F3000A128A110C2BF4
:100018000A128A110F280A128A11B325DD00D201AB
:10002800D301D401D501D601D701D801D901DA010C
:10003800DB01DC01F701F801F90183010A128A11D9
:100048006D2A8312031335088039B6003608BF00BD
:100058003508B6003607B7003708C600B41B461483
:10006800460803194528460A031D42280030B500F2
:100078000030B4000030B3000030B200B417B5014E
:100088004D280030B5000030B4000030B300003017
:10009800B20031088039B6003608BF063108B6000C
:1000A8003607B7003708C700B01B471447080319BD
:1000B8006B28470A031D68280030B1000030B000E3
:1000C8000030AF000030AE00B017B1017328003027
:1000D800B1000030B0000030AF000030AE00310891
:1000E80030042F042E04031D92280030B500003080
:1000F800B4000030B3000030B2008030B4047F3068
:10010800B5043F08B6003608B5043508B100340810
:10011800B0003308AF003208AE0008004608031DDF
:100128009E280030B1000030B0000030AF00003031
:10013800AE0008004608B600B7013708B9004708FE
:100148003602B800031CB90338087F3EC0003908DE
:100158000318013E003EC1003508BE003408BD004A
:100168003308BC003208BB000030B5000030B400D2
:100178000030B3000030B2000030C5000030C400C9
:100188000030C3000030C200C7011A30470203180C
:10019800112947080319ED280130B6000310BB0DDB
:1001A800BC0DBD0DBE0DB60BD2280130B600031034
:1001B800B20DB30DB40DB50DB60BDB28C51B32144B
:1001C8000130B6000310C20DC30DC40DC50DB60B2A
:1001D800E62831083E02031DFB2830083D02031DB6
:1001E800FB282F083C02031DFB282E083B02031C9A
:1001F8000C2945172E08BB022F08031C2F0FBC0221
:100208003008031C300FBD023108031C310FBE0239
:100218000130B6003608C707C9283E083D043C042B
:100228003B04031D4214B41B34290130B6000310EB
:10023800B20DB30DB40DB50DB60B1B29C51B321489
:100248000130B6000310C20DC30DC40DC50DB60BA9
:100258002629FF30C0070318C10AFF30C107172934
:10026800C701C51F4D29FF304205B600FF304305C1
:10027800B700FF304405B8007F304505B90039089C
:10028800380437043604031932184B294D29C7019D
:10029800C70A470803197F290130B207003003183D
:1002A8000130B307003003180130B40700300318D9
:1002B8000130B507351C7F293208B6003308B7006E
:1002C8003408B8003508B9000130BA00390DB90C46
:1002D800B80CB70CB60CBA0B6A293908B50038083F
:1002E800B4003708B3003608B2000130C00703185D
:1002F800C10A0030C1074108803AFF0080307F0200
:10030800031D8829FF304002031C9829FF308312FF
:100318000313C0000030C1000030B5000030B40045
:100328000030B3000030B200831203134108803A52
:10033800FF0080307F02031DA3290130400203180B
:10034800B22983120313C001C1010030B500003087
:10035800B4000030B3000030B200BF0183120313B1
:100368004008B6003608C600461CBC29B417C02988
:100378007F30B6003608B4054608B6000310360CC0
:10038800B7003708B500852883120313A80028088A
:10039800031DA31FDF292009AA002109AB00220998
:1003A800AC002309AD00AA0A0319AB0A0319AC0A69
:1003B8000319AD0AE7292308AD002208AC0021087B
:1003C800AB002008AA002308220421042004031DEE
:1003D800F6290030A3000030A2000030A100003050
:1003E800A00008009630A4002408A900FE302D05BE
:1003F8000319272A0130A4002408A9070130031093
:10040800AD0CAC0CAB0CAA0CFF3E031D032AFA2959
:100418000130A4002408A9070130AA0700300318F6
:100428000130AB07003003180130AC070030031867
:100438000130AD0701300310AD0CAC0CAB0CAA0CAD
:10044800FF3E031D1F2AFF302D0503193B2A0C2AE6
:1004580002302902031C3D2A0130A9020130A40000
:100468000310AA0DAB0DAC0DAD0DA40B342AAC1FB7
:100478002C2A2918472AFF30AA05FF30AB057F3000
:10048800AC05FF30AD050310A90C2908A400A5018F
:10049800A601A70118300310A40DA50DA60DA70DE0
:1004A800FF3E031D4F2A2408AA042508AB0426088A
:1004B800AC042708AD042808031DA31F642AAD1740
:1004C8002D08A3002C08A2002B08A1002A08A000D0
:1004D80008000A128A11E9240A128A110A128A11DA
:1004E800AC250A128A1183120313D1005108DC00CB
:1004F8005C08D1005108D9005C080A128A119723B8
:100508000A128A1183120313D1005108DA008F01ED
:100518008E010814053083120313D100D10B922ADF
:10052800952A831203130810881C982A1014881817
:100538009B2A10100F08D3000E08D2005208A00002
:100548005308A1000030A11BFF30A200A300013016
:100558000A128A11C8210A128A1183120313230866
:10056800B5002208B4002108B3002008B2004230C8
:10057800B1006B30B0004730AF00AE30AE000A12A9
:100588008A1125200A128A11831203133108CB001D
:100598003008CA002F08C9002E08C8000A128A119C
:1005A8007C240A128A11831203134908D3004808CD
:1005B800D2005208013ED20053080318013E003E03
:1005C800D3005308803AFF0080307F02031DEE2AD3
:1005D80002305202031C002B831203135308803A83
:1005E800FF0080307F02031DFB2A0B3052020318E4
:1005F800002B83120313D80983120313580A031D0F
:10060800072B0330082B0230D1005108DB00722A77
:10061800831203138C1D6B2B1412141B152B941FA0
:100628001F2B1308F000F1017008D6007108D700DD
:1006380014139413141683160313941E14193F2BC2
:10064800831203131308F000F1017008D600710833
:10065800D7008C11141683160313141C2F2B831226
:1006680003131308F0007008F900A630F000F00B2F
:100678003B2B0000682B941E141D682B8312031358
:100688001308F000F1017008D6007108D70083162E
:10069800031314107903031D552B831203135908F0
:1006A8005C2B02307906031D5D2B8312031352085D
:1006B800930083121416A630F000F00B612B000093
:1006C800831603131418642B831203138C110B1D48
:1006D800902B843081000B110130F0007008F8076E
:1006E8000130F0007008F7075A08770203187E2BCC
:1006F8008616832B86120A3077060319F7017808C5
:100708005B02031887145B087802031C902B871080
:10071800283078060319F80173088A00720E8300DE
:10072800FE0E7E0E0900F5000D3075020318A02B91
:1007380083120313DA010B2C0E307502031CAD2B48
:100748001A3075020318AD2B83120313DA01DA0A83
:100758000B2C1B307502031CB72B273075020318AE
:10076800B72B0230062C28307502031CC12B3430FD
:1007780075020318C12B0330062C35307502031C93
:10078800CB2B413075020318CB2B0430062C42309A
:100798007502031CD52B4E3075020318D52B053076
:1007A800062C4F307502031CDF2B5B3075020318D3
:1007B800DF2B0630062C5C307502031CE92B6830F1
:1007C80075020318E92B0730062C69307502031CE3
:1007D800F32B753075020318F32B0830062C76308E
:1007E8007502031CFD2B823075020318FD2B09309E
:1007F800062C83307502031C0B2C8F3075020318EE
:100808000B2C0A30F400740883120313DA008312E5
:1008180003135A0808008312031320032104031D3D
:10082800192C8316031381161C2C831603138112AB
:100838008312031322032304031D262C8316031398
:100848008115502C831603138111502C8316031322
:100858000110312C83160313011481103B2C8316CD
:10086800031301103A2C8316031301148114011188
:10087800712C831603130110442C831603130114DF
:1008880081104E2C8316031301104D2C831603136D
:10089800011481140115712C831203132508003AE1
:1008A8000319572C712C2408003A03192A2C013AF1
:1008B80003192E2C033A0319332C013A0319372C48
:1008C800073A03193D2C013A0319412C033A03193D
:1008D800462C013A03194A2C712C8B1783160313E3
:1008E80081178B160B118312031326088100080049
:1008F8000310831203134A0D4B0DCC004C08F5006E
:100908007508031D902C0030CB000030CA00003061
:10091800C9000030C80008004808CC004908CD00CC
:100928004A08CE004B08CF001F300310CF0CCE0C66
:10093800CD0CCC0CFF3E031D992C4C08D000500860
:10094800F400CA17FF30C805FF30C905FF30CA05D3
:100958000030CB059630F502F51FC72C7508803A94
:10096800973E031C872C01300310CB0CCA0CC90C12
:10097800C80CFF3E031DB82C0130CC004C08F5070D
:100988000319DA2CB72C203075020318872C750848
:100998000319DA2C0130CC000310C80DC90DCA0D9B
:1009A800CB0DCC0BD02C0130F502CB2C74080319DD
:1009B8000800C809C909CA09CB09C80A0319C90A1C
:1009C8000319CA0A0319CB0A080007300A128A1148
:1009D80047250A128A11831603178801890183168D
:1009E80003138501023088008601831203138501F1
:1009F80088018316031386010514051687108312D0
:100A08000313861287100230A8002808DB00DA01D9
:100A18000030A000A1000030A200A3000230A40012
:100A28000030A5008330A6000030A7000A128A1102
:100A38000F240A128A1110308312031390008316B0
:100A480003170814831603131F129F129F13831290
:100A580003139F171F131F149F121F129F111F119B
:100A6800063083120313A9002F30A800A80B3A2DD3
:100A7800A90B3A2D3F2D2030F4000030F5000A1262
:100A88008A1193250800F6006F2D831603130F12A1
:100A9800502D831603130F168F125A2D8316031326
:100AA8000F12592D831603130F168F160F13912D3E
:100AB800831603130F12632D831603130F168F1259
:100AC8006D2D831603130F126C2D831603130F1647
:100AD8008F160F17912D7608F400F5017508003A66
:100AE8000319772D692D7408003A0319492D013A25
:100AF80003194D2D033A0319522D013A0319562DA6
:100B0800073A03195C2D013A0319602D033A0319BA
:100B1800652D013A0319692D692D0F140800740811
:100B28008316031393003630831203139400803026
:100B380083160313940001309100871507168B174D
:100B48000B17831203138C11831603138C150800DB
:100B5800831203139F149F18AF2D1E0808008334B7
:04400E00D4E0FFFFFC
:00000001FF
