:020000040000FA
:060000000A128A110C280F
:10000800FE00030EFC000A08FD000A128A112128CE
:100018000A128A110F28F001F101F201F301F4012B
:10002800F501F60183132030840034300A128A1156
:10003800AC2283010A128A11B129831203138C1D81
:1000480078281412141B2A28941F31281308F90041
:100058007908AC0014139413141683160313941E12
:1000680014194D28831203131308F9007908AC00FA
:100078008C11141683160313141C3E2883120313C1
:100088001308F9007908F600A630F900F90B4A2898
:10009800000083160313941E141D7528831203137E
:1000A80085141308F9007908AC008316031314109B
:1000B8007603031D6328831203133008930002306C
:1000C8007606031D6A2883123208930083121416D9
:1000D800A630F900F90B6E280000831603131418D4
:1000E8007128831203138C110C1CCC280130F900E1
:1000F8007908B3078E018F0113303306031DCB280F
:100108000A128A1175220A128A110A128A11A32266
:100118000A128A110A128A1116220A128A11F90081
:10012800790883120313B0000A128A1116220A12E0
:100138008A11F900790883120313AF000A128A1191
:1001480016220A128A11F900790883120313B200E1
:100158000A128A1116220A128A11F90079088312E2
:100168000313B1000A128A1116220A128A11F90021
:10017800790883120313AE002F083007F9003208FC
:100188007907FA0031087A07FB007B08AD000C10EC
:100198007D088A007C0E8300FE0E7E0E0900831205
:1001A800031335082902031DDB2834082802031825
:1001B800080003302805B60000302905B7003603CB
:1001C8003704031DF428033088001A308312031300
:1001D800B700F730B600B60BEF28B70BEF28F428B6
:1001E8000330831203132805B60000302905B70031
:1001F800023036063704031D0E29063088001A30EF
:1002080083120313B700F730B600B60B0929B70BF2
:1002180009290E290330831203132805B60000307C
:100228002905B700033036063704031D28290C308A
:1002380088001A3083120313B700F730B600B60BE4
:100248002329B70B232928290330831203132805F0
:10025800B60000302905B70036083704031D4129C8
:10026800093088001A3083120313B700F730B6003C
:10027800B60B3C29B70B3C294129013083120313E3
:10028800A8070318A90A0030A907D3288312031363
:10029800A401A50135082502031D542934082402A8
:1002A8000318080003302405A20000302505A30028
:1002B80022032304031D6D29093088001A30831294
:1002C8000313B700F730B600B60B6829B70B6829D7
:1002D8006D2902308312031322062304031D81298A
:1002E8000C3088001A3083120313B700F730B600B9
:1002F800B60B7C29B70B7C298129033083120313A1
:1003080022062304031D9529063088001A3083121B
:100318000313B700F730B600B60B9029B70B902936
:1003280095298312031322082304031DA8290330E7
:1003380088001A3083120313B700F730B600B60BE3
:10034800A329B70BA329A829013083120313A407F3
:100358000318A50A0030A5074E2907300A128A118A
:100368008F220A128A11831603138801831203133A
:1003780088018316031385108316031788018312D7
:100388000313AB0183160313890183120313890135
:1003980085100330B8003808B40000300A128A11FA
:1003A8003A220A128A11403083120313B400003033
:1003B800B5000A128A115A220A128A1183120313EB
:1003C800880156303002031CFA292B08031DF9292D
:1003D8004530B4000630B5000A128A114A210A12C3
:1003E8008A1183120313AB01AB0A8801563030021D
:1003F80003180E2A2B0803190E2A4530B4000630BC
:10040800B5000A128A11D3200A128A118312031323
:10041800AB0188011A303202031C142A0914E52999
:100428000910E529F501083075020318382A8312E6
:100438000313051C1B2A1330F700F70B212A242A63
:1004480083120313051C2B2A0314F40D312A740894
:10045800F7007707F8007808F4000518312A01300A
:10046800F7007708F507172A7408080083120313A2
:10047800B700901310133408B500B50E10083506F0
:10048800CF39350690009011901010140B170C10EE
:10049800831603130C148B17831203133708B50044
:1004A800B60135088E0036088F0008008312031342
:1004B8003408831603139300363083120313940011
:1004C80080308316031394000130910087150716B6
:1004D8008B170B17831203138C11831603138C15B8
:1004E80008008316031305108312031305102F3019
:1004F800F800BF30F700F70B7F2AF80B7F2A842A11
:100508008312031305140D30F700F70B892A83169D
:1005180003130514080083120313B5003508B4004B
:10052800B40E831603130F088312031334068F398E
:100538003406831603138F000F148F1108008312DB
:1005480003130518A32A051CA72A051C0800A92AB5
:1005580064008001840A0406031900340406AD2AE5
:04400E00D4E0FFFFFC
:00000001FF
