:020000040000FA
:060000000A128A110C280F
:10000800FE00030EFC000A08FD000A128A112128CE
:100018000A128A110F28F001F101F201F301F4012B
:10002800F501F60183132030840034300A128A1156
:10003800B42283010A128A11B829831203138C1D72
:100048007A281412141B2A28941F31281308F9003F
:100058007908AC0014139413141683160313941E12
:1000680014194D28831203131308F9007908AC00FA
:100078008C11141683160313141C3E2883120313C1
:100088001308F9007908F600A630F900F90B4A2898
:10009800000083160313941E141D7828831203137B
:1000A80085141308F9007908AC008316031314109B
:1000B8007603031D6328831203133008930002306C
:1000C8007606031D6A2883123208930083121416D9
:1000D800A630F900F90B6E280000831603131418D4
:1000E800712883120313851083128C110C1CD328DA
:1000F8000130F9007908B3078E018F010830330603
:10010800031DD2280130F9007908AA070A128A11BA
:100118007D220A128A110A128A11AB220A128A1146
:100128000A128A111E220A128A11F900790883120A
:100138000313B0000A128A111E220A128A11F9004A
:10014800790883120313AF000A128A111E220A12B9
:100158008A11F900790883120313B2000A128A116E
:100168001E220A128A11F900790883120313B100BA
:100178000A128A111E220A128A11F90079088312BA
:100188000313AE002F083007F90032087907FA0088
:1001980031087A07FB007B08AD00B3010C107D081D
:1001A8008A007C0E8300FE0E7E0E09008312031364
:1001B80035082902031DE22834082802031808001C
:1001C80003302805B60000302905B7003603370488
:1001D800031DFB28033088001A3083120313B7006D
:1001E800F730B600B60BF628B70BF628FB28033015
:1001F800831203132805B60000302905B700023022
:1002080036063704031D1529063088001A30831274
:100218000313B700F730B600B60B1029B70B102937
:1002280015290330831203132805B6000030290569
:10023800B700033036063704031D2F290C30880019
:100248001A3083120313B700F730B600B60B2A2909
:10025800B70B2A292F290330831203132805B60068
:1002680000302905B70036083704031D482909302E
:1002780088001A3083120313B700F730B600B60BA4
:100288004329B70B43294829013083120313A807D0
:100298000318A90A0030A907DA2883120313A40156
:1002A800A50135082502031D5B293408240203181B
:1002B800080003302405A20000302505A30022030E
:1002C8002304031D7429093088001A30831203138C
:1002D800B700F730B600B60B6F29B70B6F29742932
:1002E80002308312031322062304031D88290C30CD
:1002F80088001A3083120313B700F730B600B60B24
:100308008329B70B83298829033083120313220614
:100318002304031D9C29063088001A308312031316
:10032800B700F730B600B60B9729B70B97299C2969
:100338008312031322082304031DAF290330880006
:100348001A3083120313B700F730B600B60BAA2988
:10035800B70BAA29AF29013083120313A407031886
:10036800A50A0030A507552907300A128A119722D5
:100378000A128A1183160313880183120313880152
:10038800831603138510831603178801831203133A
:10039800AB01831603138901831203138901B0018A
:1003A80085100330B8003808B40000300A128A11EA
:1003B80042220A128A11403083120313B40000301B
:1003C800B5000A128A1162220A128A1183120313D3
:1003D800880156303002031C022A2B08031D012A0B
:1003E8004530B4000630B5000A128A1151210A12AC
:1003F8008A1183120313AB01AB0A8801563030020D
:100408000318162A2B080319162A4530B40006309B
:10041800B5000A128A11DA200A128A11831203130C
:10042800AB0188011A303202031C1C2A0914ED2979
:100438000910ED29F501083075020318402A8312C6
:100448000313051C232A1330F700F70B292A2C2A3B
:1004580083120313051C332A0314F40D392A740874
:10046800F7007707F8007808F4000518392A0130F2
:10047800F7007708F5071F2A74080800831203138A
:10048800B700901310133408B500B50E10083506E0
:10049800CF39350690009011901010140B170C10DE
:1004A800831603130C148B17831203133708B50034
:1004B800B60135088E0036088F0008008312031332
:1004C8003408831603139300363083120313940001
:1004D80080308316031394000130910087150716A6
:1004E8008B170B17831203138C11831603138C15A8
:1004F80008008316031305108312031305102F3009
:10050800F800BF30F700F70B872AF80B872A8C2AE8
:100518008312031305140D30F700F70B912A831685
:1005280003130514080083120313B5003508B4003B
:10053800B40E831603130F088312031334068F397E
:100548003406831603138F000F148F1108008312CB
:1005580003130518AB2A051CAF2A051C0800B12A8D
:1005680064008001840A0406031900340406B52ACD
:04400E00D4E0FFFFFC
:00000001FF
