:020000040000FA
:060000000A128A110C280F
:10000800FE00030EF1000A08F2000A128A113329D1
:100018000A128A110F28F701F801F901FA0183136E
:100028002030840036300A128A11832283010A1292
:100038008A111E2807300A128A116C220A128A11A4
:10004800831603138801831203138801831603138D
:10005800851083160317880183120313AE01F90173
:1000680085100330B6003608F30000300A128A11F2
:1000780019220A128A114030F3000030F4000A12E3
:100088008A1153220A128A118312031388018510D8
:100098000A303502031CBE2885140A128A11392237
:1000A8000A128A110A128A117A220A128A110A126B
:1000B8008A11F6210A128A1183120313B600360830
:1000C800F9000A128A11F6210A128A1183120313FF
:1000D800B6003608B3000A128A11F6210A128A11EC
:1000E80083120313B6003608FA000A128A11F621A1
:1000F8000A128A1183120313B6003608B4000A12D2
:100108008A11F6210A128A1183120313B6003608DF
:10011800B20033087907B6007A083607B700340802
:100128003707B8003808B1002E307902031CAD2813
:100138002E08031DAC284530F3000630F4000A12DF
:100148008A1197210A128A1183120313AE01AE0A8B
:1001580088012E080319BD284530F3000630F40045
:100168000A128A11C6200A128A1183120313AE01D9
:100178008801B5011A307A02031CC42809144B28D7
:1001880009104B2874087802031DCC2873087702DD
:100198000318080003307705F50000307805F600ED
:1001A80075037604031DE5280330831203138800C2
:1001B8001A30F600F830F500F50BE028F60BE028C9
:1001C800000003307705F50000307805F6000230AE
:1001D80075067604031DFD28063083120313880074
:1001E8001A30F600F830F500F50BF828F60BF82869
:1001F800000003307705F50000307805F60003307D
:1002080075067604031D15290C3083120313880024
:100218001A30F600F830F500F50B1029F60B102906
:10022800000003307705F50000307805F600750802
:100238007604031D2C2909308312031388001A3011
:10024800F600F830F500F50B2729F60B27290000F2
:100258000130F7070318F80A0030F807C628831298
:1002680003138C1D87291412141B3C29941F43293E
:100278001308F0007008B0001413941314168316B2
:100288000313941E14195F29831203131308F00033
:100298007008B0008C11141683160313141C50290F
:1002A800831203131308F0007008AF00A630F000A3
:1002B800F00B5C29000083160313941E141D842977
:1002C800831203131308F0007008B0008316031399
:1002D8001410831203132F03031D74297908930044
:1002E80002302F06031D7A297A0893001416A630C7
:1002F800F000F00B7D2900008316031314188029E1
:10030800831203138C110C1C90290130F000700823
:10031800B5078E018F010C1072088A00710E8300D8
:10032800FE0E7E0E090083120313A601A7017408AE
:100338002702031DA12973082602031808000330A9
:100348002605A40000302705A50024032504031D65
:10035800B829093088001A30F600F830F500F50B96
:10036800B329F60BB32900000230831203132406C5
:100378002504031DCA290C3088001A30F600F8300D
:10038800F500F50BC529F60BC529000003308312CB
:10039800031324062504031DDC29063088001A30BF
:1003A800F600F830F500F50BD729F60BD729000031
:1003B8008312031324082504031DED290330880044
:1003C8001A30F600F830F500F50BE829F60BE829A5
:1003D8000000013083120313A6070318A70A003090
:1003E800A7079B2983120313AD01051CF9291330B4
:1003F800F300F30BFD29002A83120313051C072AB7
:100408000314AC0D0D2A2C08F3007307F4007408CC
:10041800AC0005180D2A0130F3007308AD07083049
:100428002D02031CF9292C080800F6008312031377
:10043800901310137308F400F40E10087406CF39E3
:10044800740690009011901010140B170C1083165E
:1004580003130C148B177608F400F5017408831243
:1004680003138E0075088F00080083160313051008
:100478008312031305102F30F400BF30F300F30B81
:10048800432AF40B432A482A8312031305140D3018
:10049800F300F30B4D2A83160313051408007308A1
:1004A80083160313930036308312031394008030AD
:1004B80083160313940001309100871507168B17D4
:1004C8000B17831203138C11831603138C15080062
:1004D800F4007408F300F30E831603130F08730671
:1004E8008F3973068F000F148F11080083120313BE
:1004F80005187A2A051C7E2A051C0800802A640033
:0E0508008001840A0406031900340406842AC4
:04400E00D4E0FFFFFC
:00000001FF
