:020000040000FA
:060000000A128A110C280F
:10000800FE00030EF1000A08F2000A128A113329D1
:100018000A128A110F28F701F801F901FA0183136E
:100028002030840036300A128A11822283010A1293
:100038008A111E2807300A128A116B220A128A11A5
:10004800831603138801831203138801831603138D
:10005800851083160317880183120313AE0103303A
:10006800B6003608F30000300A128A1118220A1264
:100078008A110630F3000030F4000A128A11522265
:100088000A128A118312031388010A303502031CED
:10009800BE280A128A1138220A128A110A128A11F3
:1000A80079220A128A110A128A11F5210A128A1172
:1000B80083120313B6003608F9000A128A11F521D3
:1000C8000A128A1183120313B6003608B3000A1203
:1000D8008A11F5210A128A1183120313B600360811
:1000E800FA000A128A11F5210A128A1183120313DF
:1000F800B6003608B4000A128A11F5210A128A11CC
:1001080083120313B6003608B20033087907B60025
:100118007A083607B70034083707B8003808B1003E
:10012800B5011A307902031CAA282E08031DA92834
:100138004530F3000630F4000A128A1196210A129B
:100148008A1183120313AE01AE0A880119307902AD
:100158000318BE282E080319BE284530F3000630C0
:10016800F4000A128A11C6200A128A118312031394
:10017800AE0188011A307A02031CC42809144928E0
:100188000910492874087802031DCC2873087702DF
:100198000318080003307705F50000307805F600ED
:1001A80075037604031DE5280330831203138800C2
:1001B8001A30F600F830F500F50BE028F60BE028C9
:1001C800000003307705F50000307805F6000230AE
:1001D80075067604031DFD28063083120313880074
:1001E8001A30F600F830F500F50BF828F60BF82869
:1001F800000003307705F50000307805F60003307D
:1002080075067604031D15290C3083120313880024
:100218001A30F600F830F500F50B1029F60B102906
:10022800000003307705F50000307805F600750802
:100238007604031D2C2909308312031388001A3011
:10024800F600F830F500F50B2729F60B27290000F2
:100258000130F7070318F80A0030F807C628831298
:1002680003138C1D86291412141B3C29941F43293F
:100278001308F0007008B0001413941314168316B2
:100288000313941E14196029831203131308F00032
:100298007008B0008C11141683160313141C50290F
:1002A800831203131308F0007008AF00A630F000A3
:1002B800F00B5C2900008329941E141D83298312E6
:1002C80003131308F0007008B0008316031314100A
:1002D800831203132F03031D732979089300023037
:1002E8002F06031D79297A0893001416A630F0000A
:1002F800F00B7C2900008316031314187F2983123E
:1003080003138C110C1C8F290130F0007008B507FD
:100318008E018F010C1072088A00710E8300FE0E88
:100328007E0E090083120313A601A7017408270291
:10033800031DA029730826020318080003302605A8
:10034800A40000302705A50024032504031DB729B0
:10035800093088001A30F600F830F500F50BB2299C
:10036800F60BB22900000230831203132406250479
:10037800031DC9290C3088001A30F600F830F50042
:10038800F50BC429F60BC4290000033083120313AC
:1003980024062504031DDB29063088001A30F600E0
:1003A800F830F500F50BD629F60BD6290000831294
:1003B800031324082504031DEC29033088001A3090
:1003C800F600F830F500F50BE729F60BE7290000F1
:1003D800013083120313A6070318A70A0030A707E2
:1003E8009A2983120313AD01051CF8291330F30071
:1003F800F30BFC29FF2983120313051C062A031497
:10040800AC0D0C2A2C08F3007307F4007408AC0038
:1004180005180C2A0130F3007308AD0708302D02C7
:10042800031CF8292C080800F60083120313901304
:1004380010137308F400F40E10087406CF3974060C
:1004480090009011901010140B170C1083160313C2
:100458000C148B177608F400F50174088312031343
:100468008E0075088F000800831603130510831289
:10047800031305102F30F400BF30F300F30B422AAA
:10048800F40B422A472A8312031305140D30F30094
:10049800F30B4C2A831603130514080073088316FC
:1004A80003139300363083120313940080308316AD
:1004B8000313940001309100871507168B170B174B
:1004C800831203138C11831603138C150800F40090
:1004D8007408F300F30E831603130F0873068F399D
:1004E80073068F000F148F11080083120313051869
:1004F800792A051C7D2A051C08007F2A64008001D2
:0C050800840A0406031900340406832A48
:04400E00D4E0FFFFFC
:00000001FF
