:020000040000FA
:060000000A128A110C280F
:10000800FE00030EF2000A08F3000A128A11C92939
:100018000A128A110F280A128A114C22AD00A8016F
:10002800A901AA01AB01AC01F601F701F801F90138
:1000380083010A128A1120280A128A117D210A12C4
:100048008A1183120313051C25280130F40000309F
:10005800F5000A128A112B220A128A11831203133D
:1000680008150A128A1133220A128A1183120313FD
:10007800A6002608A9001A3083120313A700F73038
:10008800A600A60B4528A70B45284A280230F400ED
:100098000030F5000A128A112B220A128A110A125C
:1000A8008A1133220A128A1183120313A600260822
:1000B800F8001A3083120313A700F730A600A60B26
:1000C8006328A70B632868280330F4000030F50084
:1000D8000A128A112B220A128A110A128A11332251
:1000E8000A128A1183120313A6002608AA001A30DE
:1000F80083120313A700F730A600A60B8128A70BCD
:10010800812886280430F4000030F5000A128A118C
:100118002B220A128A110A128A1133220A128A1110
:1001280083120313A6002608AB001A3083120313A8
:10013800A700F730A600A60B9F28A70B9F28A42886
:100148000530F4000030F5000A128A112B220A1239
:100158008A110A128A1133220A128A11831203138E
:10016800A6002608F7001A3083120313A700F730F9
:10017800A600A60BBD28A70BBD28C2280630F40090
:100188000030F5000A128A112B220A128A110A126B
:100198008A1133220A128A1183120313A600260831
:1001A800F6001A3083120313A700F730A600A60B37
:1001B800DB28A70BDB28E0280730F4000030F50027
:1001C8000A128A112B220A128A110A128A11332260
:1001D8000A128A1183120313A6002608A8001A30EF
:1001E80083120313A700F730A600A60BF928A70B64
:1001F800F928FE28252883120313A4002A29831628
:1002080003130F120A29831603130F168F121429CA
:10021800831603130F121329831603130F168F1651
:100228000F134C29831603130F121D29831603136A
:100238000F168F1228292429831603130F1627292E
:10024800831603130F128F160F174C292408F40076
:10025800F5017508003A0319322924297408003A6F
:1002680003190329013A03190729033A03190C2929
:10027800013A03191029073A03191629013A0319F3
:100288001A29033A03191F29013A03192029242995
:10029800831203132003031D5529831603138F1597
:1002A8005829831603138F11831203132103031D87
:1002B8006129831603130F156429831603130F117D
:1002C800831203132203031D6D29831603138F144E
:1002D8007029831603138F10831203132303031D3E
:1002E8007929831603130F140800831603130F10BC
:1002F800080083120313A001A00AA101A10AA20108
:10030800A301A30A07300A128A11FF200A128A11D0
:1003180083160317880189010130831603138500AA
:10032800860188018312031386018801831603134B
:10033800871783120313081188118B170B178C1159
:10034800831603138C15851683120313A001A101CC
:100358004030A5002508A20024300A128A110F2275
:100368008316031787118316031318159A01513042
:100378009A0018128312031398178316031318137D
:1003880098168312031318160800831203138C1D82
:10039800082A0A128A113A220A128A11F1007108EF
:1003A800F9008312031388157903031DDD29290831
:1003B800002A02307906031DE3297808002A033051
:1003C8007906031DE9292A08002A04307906031D45
:1003D800EF292B08002A05307906031DF52977082F
:1003E800002A06307906031DFB297608002A073003
:1003F8007906031D052A28080A128A1141220A12C1
:100408008A11831203138C1173088A00720E8300F9
:10041800FE0E7E0E0900F400831603138712741D66
:100428001D2A8312031322088316031394008715C9
:10043800252A831203132008220483160313940029
:10044800871174088312031321049400080083128F
:1004580003130C1E2B2A0C1274089900080083122F
:1004680003138C1E332A8C121A0808000A128A11E8
:1004780047228312031313080800F0007008831240
:100488000313930008008316031314180800472A5F
:02049800FF342F
:04400E00D4E0FFFFFC
:00000001FF
