:020000040000FA
:060000000A128A110C280F
:10000800FE00030EF2000A08F3000A128A11C7283C
:100018000A128A110F280A128A113A21F900F701E7
:10002800F80183010A128A11F028F6004228831683
:1000380003130F122228831603130F168F122C286E
:10004800831603130F122B28831603130F168F160C
:100058000F136428831603130F123528831603130E
:100068000F168F1240283C28831603130F163F28BB
:10007800831603130F128F160F1764287608F400DF
:10008800F5017508003A03194A283C287408003A13
:1000980003191B28013A03191F28033A03192428B6
:1000A800013A03192828073A03192E28013A031997
:1000B8003228033A03193728013A031938283C280B
:1000C800831203132003031D6D28831603138F1552
:1000D8007028831603138F11831203132103031D42
:1000E8007928831603130F157C28831603130F1121
:1000F800831203132203031D8528831603138F1409
:100108008828831603138F10831203132303031DF8
:100118009128831603130F140800831603130F1076
:10012800080083120313A001A00AA101A10AA201D9
:10013800A301A30A07300A128A1119200A128A1188
:100148008316031788018901831603138501860125
:1001580085158801831203138601880108118B17FE
:100168000B178C11831603138C158516F401F501F2
:10017800403083120313A4002408F60024300A1226
:100188008A110C210800831203138C1DE928081515
:100198000A128A1128210A128A11F1007108F8003E
:1001A80078088312031386007803031DDD281430B2
:1001B800E1287808031DE62801300A128A112F2148
:1001C8000A128A11831203138C1173088A00720EA3
:1001D8008300FE0E7E0E09000A128A1195200A126B
:1001E8008A11013083120313A500250888070130FE
:1001F800F702033083120313A7008A30A600553094
:10020800A500A50B0529A60B0529A70B0529F52887
:1002180083120313A0008316031387128312031398
:10022800201D1C297608831603139400871522299C
:10023800740876048316031394008711831203133A
:1002480020087504940008000A128A1135218312C7
:10025800031313080800F0007008831203139300B7
:0E026800080083160313141808003529FF340C
:04400E00D4E0FFFFFC
:00000001FF
