:020000040000FA
:060000000A128A110C280F
:10000800FE00030EF0000A08F1000A128A111429F2
:100018000A128A110F280A128A111B210A128A1140
:10002800A0000A128A111C210A128A11A1000A12C0
:100038008A111D210A128A11A2000A128A111E2190
:100048000A128A11A3000A128A111F210A128A11A0
:10005800F9000A128A112021FA00FB0183010A1211
:100068008A119A28F8005F28831603130F123F2875
:10007800831603130F168F124928831603130F12C2
:100088004828831603130F168F160F13812883161B
:1000980003130F125228831603130F168F125D28AD
:1000A8005928831603130F165C28831603130F129F
:1000B8008F160F1781287808F600F7017708003A9D
:1000C8000319672859287608003A03193828013A8D
:1000D80003193C28033A03194128013A0319452812
:1000E800073A03194B28013A03194F28033A031911
:1000F8005428013A0319552859287203031D8628E4
:100108008F1587288F117303031D8C280F158D28D1
:100118000F117403031D92288F1493288F107503F1
:10012800031D98280F1408000F1008000A128A11DE
:10013800DA200A128A11AC284130A7280130A728F2
:100148001930A7280A300A128A1103210A128A11C3
:10015800063083120313A5002F30A400A40BB22885
:10016800A50BB228B7280A128A110D210A128A1182
:1001780083120313A4002408FB007B030319A0289F
:1001880002307B060319A22803307B060319A42832
:1001980004307B060319A62805307B060319A62818
:1001A80006307B06031DAC282530A728F201F20A89
:1001B800F301F30AF401F501F50A07300A128A116E
:1001C80036208316031788018901831603138801D3
:1001D80087178316031787118316031318159A01B7
:1001E80051309A00181283120313981783160313B9
:1001F8001813981683120313181608110800F20032
:10020800831203130C1E04290C1272089900081596
:100218000800831203138C1E0D298C121A0808007B
:1002280071088A00700E8300FE0E7E0E09002534C8
:0A0238000A340A3401341934413449
:04400E00D4E0FFFFFC
:00000001FF
