:020000040000FA
:100000000A128A11F52FFF1B0D2883137F188317FF
:100010000008840A0319FF0A080000308A00040857
:10002000840A82070034013400340A340034643412
:100030000034E834033410342734453472347234D5
:100040006F3472342C34203472346534763469342D
:10005000733461347234003463346F346D34753406
:100060006E34693463346134633469346F346E34AC
:0A00700000342E34253464340034CB
:1008FE0064008001840A0406031900340406802C67
:10090E00831203130518872C051C8B2C051C08005D
:10091E008D2C00300A128A11B9240A128A11013064
:10092E000A128A11B9240800F1007108F000F00EC5
:10093E00831603130F0870068F3970068F000F147D
:10094E008F110800F10083120313851471088600BD
:10095E0005151A30F000F00BB22C000083120313B1
:10096E0005110800F2008312031385107208860029
:10097E0005150B30F1006230F000F00BC42CF10BBA
:10098E00C42C00008312031305110800F600760331
:10099E00031DD62C73087F3EF4007408F500023058
:1009AE007606031DDF2C7308BF3EF4007408F500B5
:1009BE0075080A128A11B92408008316031305104C
:1009CE008312031305102F30F100BF30F000F00B2F
:1009DE00EE2CF10BEE2CF32C8312031305140D30B9
:1009EE00F000F00BF82C8316031305140800831285
:1009FE000313A101051C012D1330F000F00B052D82
:100A0E00082D83120313051C0F2D0314A00D152D95
:100A1E002008F0007007F1007108A0000518152DD0
:100A2E000130F0007008A10708302102031C012DCF
:100A3E0020080800F5017508720784007308031872
:100A4E00730A83120313FF000A128A1103200A127B
:100A5E008A11003A0319080075087207840073089A
:100A6E000318730AFF000A128A1103200A128A1150
:100A7E000A128A11A9240A128A110130F40074088C
:100A8E00F507222D780879040319762DFD01FD0A4C
:100A9E00F91B5D2D01300310F80DF90DFF3E031DFE
:100AAE00522D0130FC007C08FD074F2D79087B028A
:100ABE00031D632D78087A02031C6B2D7808FA0249
:100ACE007908031CFB03FB0201300310F90CF80C30
:100ADE00FF3E031D6C2D0130FD02031D5D2D7B08B5
:100AEE00F9007A08F8000800F501F60170087104A3
:100AFE000319B22DF701F70AF11B912D01300310E6
:100B0E00F00DF10DFF3E031D862D0130F40074082B
:100B1E00F707832D01300310F50DF60DFF3E031D73
:100B2E00922D71087302031D9E2D70087202031C14
:100B3E00A72D7008F2027108031CF303F30275145B
:100B4E0001300310F10CF00CFF3E031DA82D0130F7
:100B5E00F702031D912D7608F1007508F0000800CC
:100B6E008312031386013430F400F130F300F30BDB
:100B7E00BE2DF40BBE2DC32D30300A128A11B924AE
:100B8E000A128A110D30F400FB30F300F30BCD2D59
:100B9E00F40BCD2DD22D30300A128A11B9240A123F
:100BAE008A116D30F300F30BDA2DDD2D30300A1281
:100BBE008A11B9240A128A116D30F300F30BE52D58
:100BCE00E82D38300A128A11B9240A128A1114300B
:100BDE000A128A11B9240A128A1101300A128A11D4
:100BEE00B9240A128A1106300A128A11B9240A127D
:100BFE008A110C300A128A11B9240A128A11023093
:100C0E000A128A11B924080083120313C200383065
:100C1E00BA003A08BD000130B707FF30370784002D
:100C2E000A128A110D200A128A11BA003A08C3005C
:100C3E0043080319DE2E253043060319322E4308CE
:100C4E00BA00420884003A08831380000130BA00CB
:100C5E003A08C207122EBE010130B707FF30370720
:100C6E0084000A128A110D200A128A11C300BA00DA
:100C7E00BB013B08003A0319452E122E3A08003AE2
:100C8E000319DE2E643A0319502E0D3A0319502E15
:100C9E00122E3D08840083130008C000840A000849
:100CAE00C1000230BA003A08BD07C11F672E0330DB
:100CBE00BA003A08BE04C009C109C00A0319C10A24
:100CCE00C301C30A4308BA003A07013E84000A1260
:100CDE008A110D200A128A11BB000A128A110D20E8
:100CEE000A128A11BC003C084102031D802E3B08EB
:100CFE004002031C8A2E0130BA003A08C3070530A1
:100D0E004306031D692E3E0803390319992E2D3013
:100D1E00BA00420884003A08831380000130BA00FA
:100D2E003A08C2074308BA003A08BF00FF30BA00BB
:100D3E003A08BF073F0A0319122E0A30F800003096
:100D4E00F9003F08BA003A07013E84000A128A11E0
:100D5E000D200A128A11F0000A128A110D200A12B1
:100D6E008A11F1004108F3004008F2000A128A11BC
:100D7E007B250A128A117108FB007008FA000A120C
:100D8E008A1149250A128A117808303E83120313FC
:100D9E00BB003B08C3004308BA00420884003A086F
:100DAE00831380000130BA003A08C2079D2E420814
:100DBE00840083138001080007300A128A119B24D5
:100DCE000A128A110A128A11B7250A128A110A12F8
:100DDE008A1190240A128A110A128A11E4240A1224
:100DEE008A110A128A1187240A128A110A128A118A
:100DFE00FE240A128A1183120313C4004408A500AC
:100E0E000A128A11FE240A128A1183120313C400D5
:100E1E004408A4000A128A11FE240A128A118312AF
:100E2E000313C4004408A7000A128A11FE240A12F2
:100E3E008A1183120313C4004408A6000A128A11F1
:100E4E00FE240A128A1183120313C4004408A3005D
:100E5E0024082507C40027084407C50026084507AF
:100E6E00C6004608A200230822060319652F0A129F
:100E7E008A1190240A128A11F301F30A01300A1220
:100E8E008A11CD240A128A110B30F2008030F30041
:100E9E000A128A1121250A128A11F301F30A02306D
:100EAE000A128A11CD240A128A111A30F2008030E9
:100EBE00F3000A128A1121250A128A11F301F30A8C
:100ECE0001300A128A11CD240A128A112830831297
:100EDE000313C4004408B7002508C500C601450821
:100EEE00B8004608B90028300A128A110B260A12D9
:100EFE008A112830F2000030F3000A128A112125DF
:100F0E000A128A11273083120313C4004408B70053
:100F1E002408C500C6014508B8004608B9002830A7
:100F2E000A128A110B260A128A112830F20000309A
:100F3E00F3000A128A1121250A128A11F301F30A0B
:100F4E0002300A128A11CD240A128A112830831215
:100F5E000313C4004408B7002708C500C60145089E
:100F6E00B8004608B90028300A128A110B260A1258
:100F7E008A112830F2000030F3000A128A1121255E
:100F8E000A128A11273083120313C4004408B700D3
:100F9E002608C500C6014508B8004608B900283025
:100FAE000A128A110B260A128A112830F20000301A
:100FBE00F3000A128A1121250A128A1103308312B4
:100FCE000313C6000830C5007630C400C40BED2FE5
:100FDE00C50BED2FC60BED2F0000F32E8313203023
:100FEE00840037300A128A117F2483010A128A1173
:020FFE00E32EE0
:04400E00D4E3FFFFF9
:00000001FF
