:020000040000FA
:100000000A128A11F52FFF1B0D2883137F188317FF
:100010000008840A0319FF0A080000308A00040857
:10002000840A82070034013400340A340034643412
:100030000034E834033410342734453472347234D5
:100040006F3472342C34203472346534763469342D
:10005000733461347234003463346F346D34753406
:100060006E34693463346134633469346F346E34AC
:100070000034483475346D34653464346134643428
:100080003A342034253464340034463475346E34C4
:10009000633469346F346E346134003454346534FD
:1000A0006D3470343A3420342534643400342E34C2
:1000B00025346434253400342E34253464344334F8
:0200C00000340A
:1008980064008001840A04060319003404064D2C00
:1008A800831203130518542C051C582C051C08002A
:1008B8005A2C00300A128A1186240A128A11013031
:1008C8000A128A1186240800F1007108F000F00E5F
:1008D800831603130F0870068F3970068F000F14E4
:1008E8008F110800F1008312031385147108860024
:1008F80005151A30F000F00B7F2C0000831203134B
:1009080005110800F200831203138510720886008F
:1009180005150B30F1006230F000F00B912CF10B53
:10092800912C00008312031305110800F6007603CA
:10093800031DA32C73087F3EF4007408F5000230F1
:100948007606031DAC2C7308BF3EF4007408F5004E
:1009580075080A128A1186240800831603130510E5
:100968008312031305102F30F100BF30F000F00B95
:10097800BB2CF10BBB2CC02C8312031305140D30B8
:10098800F000F00BC52C831603130514080083121E
:100998000313A101051CCE2C1330F000F00BD22C50
:1009A800D52C83120313051CDC2C0314A00DE22C98
:1009B8002008F0007007F1007108A0000518E22C6B
:1009C8000130F0007008A10708302102031CCE2C6A
:1009D80020080800F50175087207840073080318D9
:1009E800730A83120313FF000A128A1103200A12E2
:1009F8008A11003A03190800750872078400730801
:100A08000318730AFF000A128A1103200A128A11B6
:100A18000A128A1176240A128A110130F400740825
:100A2800F507EF2C780879040319432DFD01FD0A19
:100A3800F91B2A2D01300310F80DF90DFF3E031D97
:100A48001F2D0130FC007C08FD071C2D79087B0256
:100A5800031D302D78087A02031C382D7808FA0215
:100A68007908031CFB03FB0201300310F90CF80C96
:100A7800FF3E031D392D0130FD02031D2A2D7B0881
:100A8800F9007A08F8000800F501F6017008710409
:100A980003197F2DF701F70AF11B5E2D01300310B2
:100AA800F00DF10DFF3E031D532D0130F4007408C5
:100AB800F707502D01300310F50DF60DFF3E031D0D
:100AC8005F2D71087302031D6B2D70087202031CE1
:100AD800742D7008F2027108031CF303F3027514F5
:100AE80001300310F10CF00CFF3E031D752D013091
:100AF800F702031D5E2D7608F1007508F000080066
:100B08008312031386013430F400F130F300F30B41
:100B18008B2DF40B8B2D902D30300A128A118624E0
:100B28000A128A110D30F400FB30F300F30B9A2DF2
:100B3800F40B9A2D9F2D30300A128A1186240A123E
:100B48008A116D30F300F30BA72DAA2D30300A124D
:100B58008A1186240A128A116D30F300F30BB22D24
:100B6800B52D38300A128A1186240A128A111430D7
:100B78000A128A1186240A128A1101300A128A116D
:100B880086240A128A1106300A128A1186240A1249
:100B98008A110C300A128A1186240A128A1102302C
:100BA8000A128A118624080083120313C3003930FD
:100BB800BB003B08BE000130B807FF30380784008F
:100BC8000A128A110D200A128A11BB003B08C400C0
:100BD80044080319AB2E253044060319FF2D440899
:100BE800BB00430884003B08831380000130BB002E
:100BF8003B08C307DF2DBF010130B807FF303807B6
:100C080084000A128A110D200A128A11C400BB003E
:100C1800BC013C08003A0319122EDF2D3B08003AAC
:100C28000319AB2E643A03191D2E0D3A03191D2E14
:100C3800DF2D3E08840083130008C100840A0008E1
:100C4800C2000230BB003B08BE07C21F342E03306F
:100C5800BB003B08BF04C109C209C10A0319C20A83
:100C6800C401C40A4408BB003B07013E84000A12C1
:100C78008A110D200A128A11BC000A128A110D204D
:100C88000A128A11BD003D084202031D4D2E3C0880
:100C98004102031C572E0130BB003B08C407053036
:100CA8004406031D362E3F0803390319662E2D30DE
:100CB800BB00430884003B08831380000130BB005D
:100CC8003B08C3074408BB003B08C000FF30BB001B
:100CD8003B08C007400A0319DF2D0A30F80000302E
:100CE800F9004008BB003B07013E84000A128A1144
:100CF8000D200A128A11F0000A128A110D200A1218
:100D08008A11F1004208F3004108F2000A128A1120
:100D180048250A128A117108FB007008FA000A12A5
:100D28008A1116250A128A117808303E8312031395
:100D3800BC003C08C4004408BB00430884003B08CE
:100D4800831380000130BB003B08C3076A2E4308A9
:100D58008400831380010800831603178801831613
:100D6800031385100511851183120313850186016C
:100D780083160313860107300A128A1168240A129F
:100D88008A110A128A1184250A128A110A128A11F2
:100D98005D240A128A11F301F30A01300A128A113A
:100DA8009A240A128A113330F2008030F3000A12B2
:100DB8008A11EE240A128A11023083120313C70023
:100DC8000430C600B930C500C50BE82EC60BE82EA6
:100DD800C70BE82EEF2E0A128A115D240A128A1117
:100DE8000A128A11B1240A128A110A128A11542489
:100DF8000A128A110A128A11CB240A128A11831242
:100E08000313C5004508A6000A128A11CB240A124A
:100E18008A1183120313C5004508A5000A128A1116
:100E2800CB240A128A1183120313C5004508A800AF
:100E38000A128A11CB240A128A1183120313C500DD
:100E48004508A7000A128A11CB240A128A118312B4
:100E58000313C5004508A40025082607C50028086F
:100E68004507C60027084607C7004708A300240807
:100E780023060319662F0A128A115D240A128A11A1
:100E8800F301F30A01300A128A119A240A128A110C
:100E98000B30F2008030F3000A128A11EE240A1295
:100EA8008A11F301F30A02300A128A119A240A12EB
:100EB8008A111A30F2008030F3000A128A11EE24E7
:100EC8000A128A11F301F30A01300A128A119A24CC
:100ED8000A128A11273083120313C5004508B80087
:100EE8002608C600C7014608B9004708BA002930D5
:100EF8000A128A11D8250A128A112930F200003004
:100F0800F3000A128A11EE240A128A11453083125C
:100F18000313C5004508B8002508C600C7014608E0
:100F2800B9004708BA0029300A128A11D8250A12CE
:100F38008A112930F2000030F3000A128A11EE24D7
:100F48000A128A11F301F30A02300A128A119A244A
:100F58000A128A113C3083120313C5004508B800F1
:100F68002808C600C7014608B9004708BA00293052
:100F78000A128A11D8250A128A112930F200003083
:100F8800F3000A128A11EE240A128A114A308312D7
:100F98000313C5004508B8002708C600C70146085E
:100FA800B9004708BA0029300A128A11D8250A124E
:100FB8008A112930F2000030F3000A128A11EE2457
:100FC8000A128A11103083120313C7003930C60081
:100FD8000D30C500C50BEE2FC60BEE2FC70BEE2F3D
:100FE800EF2E83132030840038300A128A114C24E3
:080FF80083010A128A11B02ED8
:04400E00D4E3FFFFF9
:00000001FF
